{
	"perpus.sol": {
		"Perpustakaan": {
			"abi": [
				{
					"inputs": [],
					"stateMutability": "nonpayable",
					"type": "constructor"
				},
				{
					"inputs": [],
					"name": "admin",
					"outputs": [
						{
							"internalType": "address",
							"name": "",
							"type": "address"
						}
					],
					"stateMutability": "view",
					"type": "function"
				},
				{
					"inputs": [
						{
							"internalType": "string",
							"name": "",
							"type": "string"
						}
					],
					"name": "bukuMapping",
					"outputs": [
						{
							"internalType": "string",
							"name": "ISBN",
							"type": "string"
						},
						{
							"internalType": "string",
							"name": "judul",
							"type": "string"
						},
						{
							"internalType": "uint256",
							"name": "tahunDibuat",
							"type": "uint256"
						},
						{
							"internalType": "string",
							"name": "penulis",
							"type": "string"
						}
					],
					"stateMutability": "view",
					"type": "function"
				},
				{
					"inputs": [
						{
							"internalType": "string",
							"name": "ISBN",
							"type": "string"
						}
					],
					"name": "getDataBuku",
					"outputs": [
						{
							"internalType": "string",
							"name": "",
							"type": "string"
						},
						{
							"internalType": "string",
							"name": "",
							"type": "string"
						},
						{
							"internalType": "uint256",
							"name": "",
							"type": "uint256"
						},
						{
							"internalType": "string",
							"name": "",
							"type": "string"
						}
					],
					"stateMutability": "view",
					"type": "function"
				},
				{
					"inputs": [
						{
							"internalType": "string",
							"name": "ISBN",
							"type": "string"
						}
					],
					"name": "hapusBuku",
					"outputs": [],
					"stateMutability": "nonpayable",
					"type": "function"
				},
				{
					"inputs": [
						{
							"internalType": "string",
							"name": "ISBN",
							"type": "string"
						},
						{
							"internalType": "string",
							"name": "judul",
							"type": "string"
						},
						{
							"internalType": "uint256",
							"name": "tahunDibuat",
							"type": "uint256"
						},
						{
							"internalType": "string",
							"name": "penulis",
							"type": "string"
						}
					],
					"name": "tambahBuku",
					"outputs": [],
					"stateMutability": "nonpayable",
					"type": "function"
				},
				{
					"inputs": [
						{
							"internalType": "string",
							"name": "ISBN",
							"type": "string"
						},
						{
							"internalType": "string",
							"name": "judul",
							"type": "string"
						},
						{
							"internalType": "uint256",
							"name": "tahunDibuat",
							"type": "uint256"
						},
						{
							"internalType": "string",
							"name": "penulis",
							"type": "string"
						}
					],
					"name": "updateBuku",
					"outputs": [],
					"stateMutability": "nonpayable",
					"type": "function"
				}
			],
			"devdoc": {
				"kind": "dev",
				"methods": {},
				"version": 1
			},
			"evm": {
				"assembly": "    /* \"perpus.sol\":167:2569  contract Perpustakaan {... */\n  mstore(0x40, 0x80)\n    /* \"perpus.sol\":888:937  constructor() {... */\n  callvalue\n  dup1\n  iszero\n  tag_1\n  jumpi\n  0x00\n  dup1\n  revert\ntag_1:\n  pop\n    /* \"perpus.sol\":920:930  msg.sender */\n  caller\n    /* \"perpus.sol\":912:917  admin */\n  0x01\n  0x00\n    /* \"perpus.sol\":912:930  admin = msg.sender */\n  0x0100\n  exp\n  dup2\n  sload\n  dup2\n  0xffffffffffffffffffffffffffffffffffffffff\n  mul\n  not\n  and\n  swap1\n  dup4\n  0xffffffffffffffffffffffffffffffffffffffff\n  and\n  mul\n  or\n  swap1\n  sstore\n  pop\n    /* \"perpus.sol\":167:2569  contract Perpustakaan {... */\n  dataSize(sub_0)\n  dup1\n  dataOffset(sub_0)\n  0x00\n  codecopy\n  0x00\n  return\nstop\n\nsub_0: assembly {\n        /* \"perpus.sol\":167:2569  contract Perpustakaan {... */\n      mstore(0x40, 0x80)\n      callvalue\n      dup1\n      iszero\n      tag_1\n      jumpi\n      0x00\n      dup1\n      revert\n    tag_1:\n      pop\n      jumpi(tag_2, lt(calldatasize, 0x04))\n      shr(0xe0, calldataload(0x00))\n      dup1\n      0x5aeecb93\n      eq\n      tag_3\n      jumpi\n      dup1\n      0x6631d4f0\n      eq\n      tag_4\n      jumpi\n      dup1\n      0x85af0a9b\n      eq\n      tag_5\n      jumpi\n      dup1\n      0x89ef65d4\n      eq\n      tag_6\n      jumpi\n      dup1\n      0x96de0fc7\n      eq\n      tag_7\n      jumpi\n      dup1\n      0xf851a440\n      eq\n      tag_8\n      jumpi\n    tag_2:\n      0x00\n      dup1\n      revert\n        /* \"perpus.sol\":504:546  mapping(string => Buku) public bukuMapping */\n    tag_3:\n      tag_9\n      0x04\n      dup1\n      calldatasize\n      sub\n      dup2\n      add\n      swap1\n      tag_10\n      swap2\n      swap1\n      tag_11\n      jump\t// in\n    tag_10:\n      tag_12\n      jump\t// in\n    tag_9:\n      mload(0x40)\n      tag_13\n      swap5\n      swap4\n      swap3\n      swap2\n      swap1\n      tag_14\n      jump\t// in\n    tag_13:\n      mload(0x40)\n      dup1\n      swap2\n      sub\n      swap1\n      return\n        /* \"perpus.sol\":985:1385  function tambahBuku(string memory ISBN, string memory judul, uint256 tahunDibuat, string memory penulis) public hanyaAdmin {... */\n    tag_4:\n      tag_15\n      0x04\n      dup1\n      calldatasize\n      sub\n      dup2\n      add\n      swap1\n      tag_16\n      swap2\n      swap1\n      tag_17\n      jump\t// in\n    tag_16:\n      tag_18\n      jump\t// in\n    tag_15:\n      stop\n        /* \"perpus.sol\":1427:1851  function updateBuku(string memory ISBN, string memory judul, uint256 tahunDibuat, string memory penulis) public hanyaAdmin {... */\n    tag_5:\n      tag_19\n      0x04\n      dup1\n      calldatasize\n      sub\n      dup2\n      add\n      swap1\n      tag_20\n      swap2\n      swap1\n      tag_17\n      jump\t// in\n    tag_20:\n      tag_21\n      jump\t// in\n    tag_19:\n      stop\n        /* \"perpus.sol\":2234:2567  function getDataBuku(string memory ISBN) public view returns (string memory, string memory, uint256, string memory) {... */\n    tag_6:\n      tag_22\n      0x04\n      dup1\n      calldatasize\n      sub\n      dup2\n      add\n      swap1\n      tag_23\n      swap2\n      swap1\n      tag_11\n      jump\t// in\n    tag_23:\n      tag_24\n      jump\t// in\n    tag_22:\n      mload(0x40)\n      tag_25\n      swap5\n      swap4\n      swap3\n      swap2\n      swap1\n      tag_14\n      jump\t// in\n    tag_25:\n      mload(0x40)\n      dup1\n      swap2\n      sub\n      swap1\n      return\n        /* \"perpus.sol\":1892:2169  function hapusBuku(string memory ISBN) public hanyaAdmin {... */\n    tag_7:\n      tag_26\n      0x04\n      dup1\n      calldatasize\n      sub\n      dup2\n      add\n      swap1\n      tag_27\n      swap2\n      swap1\n      tag_11\n      jump\t// in\n    tag_27:\n      tag_28\n      jump\t// in\n    tag_26:\n      stop\n        /* \"perpus.sol\":573:593  address public admin */\n    tag_8:\n      tag_29\n      tag_30\n      jump\t// in\n    tag_29:\n      mload(0x40)\n      tag_31\n      swap2\n      swap1\n      tag_32\n      jump\t// in\n    tag_31:\n      mload(0x40)\n      dup1\n      swap2\n      sub\n      swap1\n      return\n        /* \"perpus.sol\":504:546  mapping(string => Buku) public bukuMapping */\n    tag_12:\n      0x00\n      dup2\n      dup1\n      mload\n      0x20\n      dup2\n      add\n      dup3\n      add\n      dup1\n      mload\n      dup5\n      dup3\n      mstore\n      0x20\n      dup4\n      add\n      0x20\n      dup6\n      add\n      keccak256\n      dup2\n      dup4\n      mstore\n      dup1\n      swap6\n      pop\n      pop\n      pop\n      pop\n      pop\n      pop\n      0x00\n      swap2\n      pop\n      swap1\n      pop\n      dup1\n      0x00\n      add\n      dup1\n      sload\n      tag_33\n      swap1\n      tag_34\n      jump\t// in\n    tag_33:\n      dup1\n      0x1f\n      add\n      0x20\n      dup1\n      swap2\n      div\n      mul\n      0x20\n      add\n      mload(0x40)\n      swap1\n      dup2\n      add\n      0x40\n      mstore\n      dup1\n      swap3\n      swap2\n      swap1\n      dup2\n      dup2\n      mstore\n      0x20\n      add\n      dup3\n      dup1\n      sload\n      tag_35\n      swap1\n      tag_34\n      jump\t// in\n    tag_35:\n      dup1\n      iszero\n      tag_36\n      jumpi\n      dup1\n      0x1f\n      lt\n      tag_37\n      jumpi\n      0x0100\n      dup1\n      dup4\n      sload\n      div\n      mul\n      dup4\n      mstore\n      swap2\n      0x20\n      add\n      swap2\n      jump(tag_36)\n    tag_37:\n      dup3\n      add\n      swap2\n      swap1\n      0x00\n      mstore\n      keccak256(0x00, 0x20)\n      swap1\n    tag_38:\n      dup2\n      sload\n      dup2\n      mstore\n      swap1\n      0x01\n      add\n      swap1\n      0x20\n      add\n      dup1\n      dup4\n      gt\n      tag_38\n      jumpi\n      dup3\n      swap1\n      sub\n      0x1f\n      and\n      dup3\n      add\n      swap2\n    tag_36:\n      pop\n      pop\n      pop\n      pop\n      pop\n      swap1\n      dup1\n      0x01\n      add\n      dup1\n      sload\n      tag_39\n      swap1\n      tag_34\n      jump\t// in\n    tag_39:\n      dup1\n      0x1f\n      add\n      0x20\n      dup1\n      swap2\n      div\n      mul\n      0x20\n      add\n      mload(0x40)\n      swap1\n      dup2\n      add\n      0x40\n      mstore\n      dup1\n      swap3\n      swap2\n      swap1\n      dup2\n      dup2\n      mstore\n      0x20\n      add\n      dup3\n      dup1\n      sload\n      tag_40\n      swap1\n      tag_34\n      jump\t// in\n    tag_40:\n      dup1\n      iszero\n      tag_41\n      jumpi\n      dup1\n      0x1f\n      lt\n      tag_42\n      jumpi\n      0x0100\n      dup1\n      dup4\n      sload\n      div\n      mul\n      dup4\n      mstore\n      swap2\n      0x20\n      add\n      swap2\n      jump(tag_41)\n    tag_42:\n      dup3\n      add\n      swap2\n      swap1\n      0x00\n      mstore\n      keccak256(0x00, 0x20)\n      swap1\n    tag_43:\n      dup2\n      sload\n      dup2\n      mstore\n      swap1\n      0x01\n      add\n      swap1\n      0x20\n      add\n      dup1\n      dup4\n      gt\n      tag_43\n      jumpi\n      dup3\n      swap1\n      sub\n      0x1f\n      and\n      dup3\n      add\n      swap2\n    tag_41:\n      pop\n      pop\n      pop\n      pop\n      pop\n      swap1\n      dup1\n      0x02\n      add\n      sload\n      swap1\n      dup1\n      0x03\n      add\n      dup1\n      sload\n      tag_44\n      swap1\n      tag_34\n      jump\t// in\n    tag_44:\n      dup1\n      0x1f\n      add\n      0x20\n      dup1\n      swap2\n      div\n      mul\n      0x20\n      add\n      mload(0x40)\n      swap1\n      dup2\n      add\n      0x40\n      mstore\n      dup1\n      swap3\n      swap2\n      swap1\n      dup2\n      dup2\n      mstore\n      0x20\n      add\n      dup3\n      dup1\n      sload\n      tag_45\n      swap1\n      tag_34\n      jump\t// in\n    tag_45:\n      dup1\n      iszero\n      tag_46\n      jumpi\n      dup1\n      0x1f\n      lt\n      tag_47\n      jumpi\n      0x0100\n      dup1\n      dup4\n      sload\n      div\n      mul\n      dup4\n      mstore\n      swap2\n      0x20\n      add\n      swap2\n      jump(tag_46)\n    tag_47:\n      dup3\n      add\n      swap2\n      swap1\n      0x00\n      mstore\n      keccak256(0x00, 0x20)\n      swap1\n    tag_48:\n      dup2\n      sload\n      dup2\n      mstore\n      swap1\n      0x01\n      add\n      swap1\n      0x20\n      add\n      dup1\n      dup4\n      gt\n      tag_48\n      jumpi\n      dup3\n      swap1\n      sub\n      0x1f\n      and\n      dup3\n      add\n      swap2\n    tag_46:\n      pop\n      pop\n      pop\n      pop\n      pop\n      swap1\n      pop\n      dup5\n      jump\t// out\n        /* \"perpus.sol\":985:1385  function tambahBuku(string memory ISBN, string memory judul, uint256 tahunDibuat, string memory penulis) public hanyaAdmin {... */\n    tag_18:\n        /* \"perpus.sol\":723:728  admin */\n      0x01\n      0x00\n      swap1\n      sload\n      swap1\n      0x0100\n      exp\n      swap1\n      div\n      0xffffffffffffffffffffffffffffffffffffffff\n      and\n        /* \"perpus.sol\":709:728  msg.sender == admin */\n      0xffffffffffffffffffffffffffffffffffffffff\n      and\n        /* \"perpus.sol\":709:719  msg.sender */\n      caller\n        /* \"perpus.sol\":709:728  msg.sender == admin */\n      0xffffffffffffffffffffffffffffffffffffffff\n      and\n      eq\n        /* \"perpus.sol\":688:794  require(... */\n      tag_50\n      jumpi\n      mload(0x40)\n      0x08c379a000000000000000000000000000000000000000000000000000000000\n      dup2\n      mstore\n      0x04\n      add\n      tag_51\n      swap1\n      tag_52\n      jump\t// in\n    tag_51:\n      mload(0x40)\n      dup1\n      swap2\n      sub\n      swap1\n      revert\n    tag_50:\n        /* \"perpus.sol\":1227:1228  0 */\n      0x00\n        /* \"perpus.sol\":1194:1205  bukuMapping */\n      dup1\n        /* \"perpus.sol\":1206:1210  ISBN */\n      dup6\n        /* \"perpus.sol\":1194:1211  bukuMapping[ISBN] */\n      mload(0x40)\n      tag_54\n      swap2\n      swap1\n      tag_55\n      jump\t// in\n    tag_54:\n      swap1\n      dup2\n      mstore\n      0x20\n      add\n      mload(0x40)\n      dup1\n      swap2\n      sub\n      swap1\n      keccak256\n        /* \"perpus.sol\":1194:1223  bukuMapping[ISBN].tahunDibuat */\n      0x02\n      add\n      sload\n        /* \"perpus.sol\":1194:1228  bukuMapping[ISBN].tahunDibuat == 0 */\n      eq\n        /* \"perpus.sol\":1173:1267  require(... */\n      tag_56\n      jumpi\n      mload(0x40)\n      0x08c379a000000000000000000000000000000000000000000000000000000000\n      dup2\n      mstore\n      0x04\n      add\n      tag_57\n      swap1\n      tag_58\n      jump\t// in\n    tag_57:\n      mload(0x40)\n      dup1\n      swap2\n      sub\n      swap1\n      revert\n    tag_56:\n        /* \"perpus.sol\":1278:1298  Buku memory bukuBaru */\n      0x00\n        /* \"perpus.sol\":1301:1340  Buku(ISBN, judul, tahunDibuat, penulis) */\n      mload(0x40)\n      dup1\n      0x80\n      add\n      0x40\n      mstore\n      dup1\n        /* \"perpus.sol\":1306:1310  ISBN */\n      dup7\n        /* \"perpus.sol\":1301:1340  Buku(ISBN, judul, tahunDibuat, penulis) */\n      dup2\n      mstore\n      0x20\n      add\n        /* \"perpus.sol\":1312:1317  judul */\n      dup6\n        /* \"perpus.sol\":1301:1340  Buku(ISBN, judul, tahunDibuat, penulis) */\n      dup2\n      mstore\n      0x20\n      add\n        /* \"perpus.sol\":1319:1330  tahunDibuat */\n      dup5\n        /* \"perpus.sol\":1301:1340  Buku(ISBN, judul, tahunDibuat, penulis) */\n      dup2\n      mstore\n      0x20\n      add\n        /* \"perpus.sol\":1332:1339  penulis */\n      dup4\n        /* \"perpus.sol\":1301:1340  Buku(ISBN, judul, tahunDibuat, penulis) */\n      dup2\n      mstore\n      pop\n        /* \"perpus.sol\":1278:1340  Buku memory bukuBaru = Buku(ISBN, judul, tahunDibuat, penulis) */\n      swap1\n      pop\n        /* \"perpus.sol\":1370:1378  bukuBaru */\n      dup1\n        /* \"perpus.sol\":1350:1361  bukuMapping */\n      0x00\n        /* \"perpus.sol\":1362:1366  ISBN */\n      dup7\n        /* \"perpus.sol\":1350:1367  bukuMapping[ISBN] */\n      mload(0x40)\n      tag_59\n      swap2\n      swap1\n      tag_55\n      jump\t// in\n    tag_59:\n      swap1\n      dup2\n      mstore\n      0x20\n      add\n      mload(0x40)\n      dup1\n      swap2\n      sub\n      swap1\n      keccak256\n        /* \"perpus.sol\":1350:1378  bukuMapping[ISBN] = bukuBaru */\n      0x00\n      dup3\n      add\n      mload\n      dup2\n      0x00\n      add\n      swap1\n      dup2\n      tag_60\n      swap2\n      swap1\n      tag_61\n      jump\t// in\n    tag_60:\n      pop\n      0x20\n      dup3\n      add\n      mload\n      dup2\n      0x01\n      add\n      swap1\n      dup2\n      tag_62\n      swap2\n      swap1\n      tag_61\n      jump\t// in\n    tag_62:\n      pop\n      0x40\n      dup3\n      add\n      mload\n      dup2\n      0x02\n      add\n      sstore\n      0x60\n      dup3\n      add\n      mload\n      dup2\n      0x03\n      add\n      swap1\n      dup2\n      tag_63\n      swap2\n      swap1\n      tag_61\n      jump\t// in\n    tag_63:\n      pop\n      swap1\n      pop\n      pop\n        /* \"perpus.sol\":1108:1385  {... */\n      pop\n        /* \"perpus.sol\":985:1385  function tambahBuku(string memory ISBN, string memory judul, uint256 tahunDibuat, string memory penulis) public hanyaAdmin {... */\n      pop\n      pop\n      pop\n      pop\n      jump\t// out\n        /* \"perpus.sol\":1427:1851  function updateBuku(string memory ISBN, string memory judul, uint256 tahunDibuat, string memory penulis) public hanyaAdmin {... */\n    tag_21:\n        /* \"perpus.sol\":723:728  admin */\n      0x01\n      0x00\n      swap1\n      sload\n      swap1\n      0x0100\n      exp\n      swap1\n      div\n      0xffffffffffffffffffffffffffffffffffffffff\n      and\n        /* \"perpus.sol\":709:728  msg.sender == admin */\n      0xffffffffffffffffffffffffffffffffffffffff\n      and\n        /* \"perpus.sol\":709:719  msg.sender */\n      caller\n        /* \"perpus.sol\":709:728  msg.sender == admin */\n      0xffffffffffffffffffffffffffffffffffffffff\n      and\n      eq\n        /* \"perpus.sol\":688:794  require(... */\n      tag_65\n      jumpi\n      mload(0x40)\n      0x08c379a000000000000000000000000000000000000000000000000000000000\n      dup2\n      mstore\n      0x04\n      add\n      tag_66\n      swap1\n      tag_52\n      jump\t// in\n    tag_66:\n      mload(0x40)\n      dup1\n      swap2\n      sub\n      swap1\n      revert\n    tag_65:\n        /* \"perpus.sol\":1689:1690  0 */\n      0x00\n        /* \"perpus.sol\":1656:1667  bukuMapping */\n      dup1\n        /* \"perpus.sol\":1668:1672  ISBN */\n      dup6\n        /* \"perpus.sol\":1656:1673  bukuMapping[ISBN] */\n      mload(0x40)\n      tag_68\n      swap2\n      swap1\n      tag_55\n      jump\t// in\n    tag_68:\n      swap1\n      dup2\n      mstore\n      0x20\n      add\n      mload(0x40)\n      dup1\n      swap2\n      sub\n      swap1\n      keccak256\n        /* \"perpus.sol\":1656:1685  bukuMapping[ISBN].tahunDibuat */\n      0x02\n      add\n      sload\n        /* \"perpus.sol\":1656:1690  bukuMapping[ISBN].tahunDibuat != 0 */\n      sub\n        /* \"perpus.sol\":1635:1729  require(... */\n      tag_69\n      jumpi\n      mload(0x40)\n      0x08c379a000000000000000000000000000000000000000000000000000000000\n      dup2\n      mstore\n      0x04\n      add\n      tag_70\n      swap1\n      tag_71\n      jump\t// in\n    tag_70:\n      mload(0x40)\n      dup1\n      swap2\n      sub\n      swap1\n      revert\n    tag_69:\n        /* \"perpus.sol\":1740:1762  Buku memory bukuUpdate */\n      0x00\n        /* \"perpus.sol\":1765:1804  Buku(ISBN, judul, tahunDibuat, penulis) */\n      mload(0x40)\n      dup1\n      0x80\n      add\n      0x40\n      mstore\n      dup1\n        /* \"perpus.sol\":1770:1774  ISBN */\n      dup7\n        /* \"perpus.sol\":1765:1804  Buku(ISBN, judul, tahunDibuat, penulis) */\n      dup2\n      mstore\n      0x20\n      add\n        /* \"perpus.sol\":1776:1781  judul */\n      dup6\n        /* \"perpus.sol\":1765:1804  Buku(ISBN, judul, tahunDibuat, penulis) */\n      dup2\n      mstore\n      0x20\n      add\n        /* \"perpus.sol\":1783:1794  tahunDibuat */\n      dup5\n        /* \"perpus.sol\":1765:1804  Buku(ISBN, judul, tahunDibuat, penulis) */\n      dup2\n      mstore\n      0x20\n      add\n        /* \"perpus.sol\":1796:1803  penulis */\n      dup4\n        /* \"perpus.sol\":1765:1804  Buku(ISBN, judul, tahunDibuat, penulis) */\n      dup2\n      mstore\n      pop\n        /* \"perpus.sol\":1740:1804  Buku memory bukuUpdate = Buku(ISBN, judul, tahunDibuat, penulis) */\n      swap1\n      pop\n        /* \"perpus.sol\":1834:1844  bukuUpdate */\n      dup1\n        /* \"perpus.sol\":1814:1825  bukuMapping */\n      0x00\n        /* \"perpus.sol\":1826:1830  ISBN */\n      dup7\n        /* \"perpus.sol\":1814:1831  bukuMapping[ISBN] */\n      mload(0x40)\n      tag_72\n      swap2\n      swap1\n      tag_55\n      jump\t// in\n    tag_72:\n      swap1\n      dup2\n      mstore\n      0x20\n      add\n      mload(0x40)\n      dup1\n      swap2\n      sub\n      swap1\n      keccak256\n        /* \"perpus.sol\":1814:1844  bukuMapping[ISBN] = bukuUpdate */\n      0x00\n      dup3\n      add\n      mload\n      dup2\n      0x00\n      add\n      swap1\n      dup2\n      tag_73\n      swap2\n      swap1\n      tag_61\n      jump\t// in\n    tag_73:\n      pop\n      0x20\n      dup3\n      add\n      mload\n      dup2\n      0x01\n      add\n      swap1\n      dup2\n      tag_74\n      swap2\n      swap1\n      tag_61\n      jump\t// in\n    tag_74:\n      pop\n      0x40\n      dup3\n      add\n      mload\n      dup2\n      0x02\n      add\n      sstore\n      0x60\n      dup3\n      add\n      mload\n      dup2\n      0x03\n      add\n      swap1\n      dup2\n      tag_75\n      swap2\n      swap1\n      tag_61\n      jump\t// in\n    tag_75:\n      pop\n      swap1\n      pop\n      pop\n        /* \"perpus.sol\":1550:1851  {... */\n      pop\n        /* \"perpus.sol\":1427:1851  function updateBuku(string memory ISBN, string memory judul, uint256 tahunDibuat, string memory penulis) public hanyaAdmin {... */\n      pop\n      pop\n      pop\n      pop\n      jump\t// out\n        /* \"perpus.sol\":2234:2567  function getDataBuku(string memory ISBN) public view returns (string memory, string memory, uint256, string memory) {... */\n    tag_24:\n        /* \"perpus.sol\":2296:2309  string memory */\n      0x60\n        /* \"perpus.sol\":2311:2324  string memory */\n      dup1\n        /* \"perpus.sol\":2326:2333  uint256 */\n      0x00\n        /* \"perpus.sol\":2335:2348  string memory */\n      0x60\n        /* \"perpus.sol\":2360:2376  Buku memory buku */\n      0x00\n        /* \"perpus.sol\":2379:2390  bukuMapping */\n      dup1\n        /* \"perpus.sol\":2391:2395  ISBN */\n      dup7\n        /* \"perpus.sol\":2379:2396  bukuMapping[ISBN] */\n      mload(0x40)\n      tag_77\n      swap2\n      swap1\n      tag_55\n      jump\t// in\n    tag_77:\n      swap1\n      dup2\n      mstore\n      0x20\n      add\n      mload(0x40)\n      dup1\n      swap2\n      sub\n      swap1\n      keccak256\n        /* \"perpus.sol\":2360:2396  Buku memory buku = bukuMapping[ISBN] */\n      mload(0x40)\n      dup1\n      0x80\n      add\n      0x40\n      mstore\n      swap1\n      dup2\n      0x00\n      dup3\n      add\n      dup1\n      sload\n      tag_78\n      swap1\n      tag_34\n      jump\t// in\n    tag_78:\n      dup1\n      0x1f\n      add\n      0x20\n      dup1\n      swap2\n      div\n      mul\n      0x20\n      add\n      mload(0x40)\n      swap1\n      dup2\n      add\n      0x40\n      mstore\n      dup1\n      swap3\n      swap2\n      swap1\n      dup2\n      dup2\n      mstore\n      0x20\n      add\n      dup3\n      dup1\n      sload\n      tag_79\n      swap1\n      tag_34\n      jump\t// in\n    tag_79:\n      dup1\n      iszero\n      tag_80\n      jumpi\n      dup1\n      0x1f\n      lt\n      tag_81\n      jumpi\n      0x0100\n      dup1\n      dup4\n      sload\n      div\n      mul\n      dup4\n      mstore\n      swap2\n      0x20\n      add\n      swap2\n      jump(tag_80)\n    tag_81:\n      dup3\n      add\n      swap2\n      swap1\n      0x00\n      mstore\n      keccak256(0x00, 0x20)\n      swap1\n    tag_82:\n      dup2\n      sload\n      dup2\n      mstore\n      swap1\n      0x01\n      add\n      swap1\n      0x20\n      add\n      dup1\n      dup4\n      gt\n      tag_82\n      jumpi\n      dup3\n      swap1\n      sub\n      0x1f\n      and\n      dup3\n      add\n      swap2\n    tag_80:\n      pop\n      pop\n      pop\n      pop\n      pop\n      dup2\n      mstore\n      0x20\n      add\n      0x01\n      dup3\n      add\n      dup1\n      sload\n      tag_83\n      swap1\n      tag_34\n      jump\t// in\n    tag_83:\n      dup1\n      0x1f\n      add\n      0x20\n      dup1\n      swap2\n      div\n      mul\n      0x20\n      add\n      mload(0x40)\n      swap1\n      dup2\n      add\n      0x40\n      mstore\n      dup1\n      swap3\n      swap2\n      swap1\n      dup2\n      dup2\n      mstore\n      0x20\n      add\n      dup3\n      dup1\n      sload\n      tag_84\n      swap1\n      tag_34\n      jump\t// in\n    tag_84:\n      dup1\n      iszero\n      tag_85\n      jumpi\n      dup1\n      0x1f\n      lt\n      tag_86\n      jumpi\n      0x0100\n      dup1\n      dup4\n      sload\n      div\n      mul\n      dup4\n      mstore\n      swap2\n      0x20\n      add\n      swap2\n      jump(tag_85)\n    tag_86:\n      dup3\n      add\n      swap2\n      swap1\n      0x00\n      mstore\n      keccak256(0x00, 0x20)\n      swap1\n    tag_87:\n      dup2\n      sload\n      dup2\n      mstore\n      swap1\n      0x01\n      add\n      swap1\n      0x20\n      add\n      dup1\n      dup4\n      gt\n      tag_87\n      jumpi\n      dup3\n      swap1\n      sub\n      0x1f\n      and\n      dup3\n      add\n      swap2\n    tag_85:\n      pop\n      pop\n      pop\n      pop\n      pop\n      dup2\n      mstore\n      0x20\n      add\n      0x02\n      dup3\n      add\n      sload\n      dup2\n      mstore\n      0x20\n      add\n      0x03\n      dup3\n      add\n      dup1\n      sload\n      tag_88\n      swap1\n      tag_34\n      jump\t// in\n    tag_88:\n      dup1\n      0x1f\n      add\n      0x20\n      dup1\n      swap2\n      div\n      mul\n      0x20\n      add\n      mload(0x40)\n      swap1\n      dup2\n      add\n      0x40\n      mstore\n      dup1\n      swap3\n      swap2\n      swap1\n      dup2\n      dup2\n      mstore\n      0x20\n      add\n      dup3\n      dup1\n      sload\n      tag_89\n      swap1\n      tag_34\n      jump\t// in\n    tag_89:\n      dup1\n      iszero\n      tag_90\n      jumpi\n      dup1\n      0x1f\n      lt\n      tag_91\n      jumpi\n      0x0100\n      dup1\n      dup4\n      sload\n      div\n      mul\n      dup4\n      mstore\n      swap2\n      0x20\n      add\n      swap2\n      jump(tag_90)\n    tag_91:\n      dup3\n      add\n      swap2\n      swap1\n      0x00\n      mstore\n      keccak256(0x00, 0x20)\n      swap1\n    tag_92:\n      dup2\n      sload\n      dup2\n      mstore\n      swap1\n      0x01\n      add\n      swap1\n      0x20\n      add\n      dup1\n      dup4\n      gt\n      tag_92\n      jumpi\n      dup3\n      swap1\n      sub\n      0x1f\n      and\n      dup3\n      add\n      swap2\n    tag_90:\n      pop\n      pop\n      pop\n      pop\n      pop\n      dup2\n      mstore\n      pop\n      pop\n      swap1\n      pop\n        /* \"perpus.sol\":2447:2448  0 */\n      0x00\n        /* \"perpus.sol\":2427:2431  buku */\n      dup2\n        /* \"perpus.sol\":2427:2443  buku.tahunDibuat */\n      0x40\n      add\n      mload\n        /* \"perpus.sol\":2427:2448  buku.tahunDibuat != 0 */\n      sub\n        /* \"perpus.sol\":2406:2487  require(... */\n      tag_93\n      jumpi\n      mload(0x40)\n      0x08c379a000000000000000000000000000000000000000000000000000000000\n      dup2\n      mstore\n      0x04\n      add\n      tag_94\n      swap1\n      tag_71\n      jump\t// in\n    tag_94:\n      mload(0x40)\n      dup1\n      swap2\n      sub\n      swap1\n      revert\n    tag_93:\n        /* \"perpus.sol\":2506:2510  buku */\n      dup1\n        /* \"perpus.sol\":2506:2515  buku.ISBN */\n      0x00\n      add\n      mload\n        /* \"perpus.sol\":2517:2521  buku */\n      dup2\n        /* \"perpus.sol\":2517:2527  buku.judul */\n      0x20\n      add\n      mload\n        /* \"perpus.sol\":2529:2533  buku */\n      dup3\n        /* \"perpus.sol\":2529:2545  buku.tahunDibuat */\n      0x40\n      add\n      mload\n        /* \"perpus.sol\":2547:2551  buku */\n      dup4\n        /* \"perpus.sol\":2547:2559  buku.penulis */\n      0x60\n      add\n      mload\n        /* \"perpus.sol\":2498:2560  return (buku.ISBN, buku.judul, buku.tahunDibuat, buku.penulis) */\n      swap5\n      pop\n      swap5\n      pop\n      swap5\n      pop\n      swap5\n      pop\n      pop\n        /* \"perpus.sol\":2234:2567  function getDataBuku(string memory ISBN) public view returns (string memory, string memory, uint256, string memory) {... */\n      swap2\n      swap4\n      pop\n      swap2\n      swap4\n      jump\t// out\n        /* \"perpus.sol\":1892:2169  function hapusBuku(string memory ISBN) public hanyaAdmin {... */\n    tag_28:\n        /* \"perpus.sol\":723:728  admin */\n      0x01\n      0x00\n      swap1\n      sload\n      swap1\n      0x0100\n      exp\n      swap1\n      div\n      0xffffffffffffffffffffffffffffffffffffffff\n      and\n        /* \"perpus.sol\":709:728  msg.sender == admin */\n      0xffffffffffffffffffffffffffffffffffffffff\n      and\n        /* \"perpus.sol\":709:719  msg.sender */\n      caller\n        /* \"perpus.sol\":709:728  msg.sender == admin */\n      0xffffffffffffffffffffffffffffffffffffffff\n      and\n      eq\n        /* \"perpus.sol\":688:794  require(... */\n      tag_96\n      jumpi\n      mload(0x40)\n      0x08c379a000000000000000000000000000000000000000000000000000000000\n      dup2\n      mstore\n      0x04\n      add\n      tag_97\n      swap1\n      tag_52\n      jump\t// in\n    tag_97:\n      mload(0x40)\n      dup1\n      swap2\n      sub\n      swap1\n      revert\n    tag_96:\n        /* \"perpus.sol\":2087:2088  0 */\n      0x00\n        /* \"perpus.sol\":2054:2065  bukuMapping */\n      dup1\n        /* \"perpus.sol\":2066:2070  ISBN */\n      dup3\n        /* \"perpus.sol\":2054:2071  bukuMapping[ISBN] */\n      mload(0x40)\n      tag_99\n      swap2\n      swap1\n      tag_55\n      jump\t// in\n    tag_99:\n      swap1\n      dup2\n      mstore\n      0x20\n      add\n      mload(0x40)\n      dup1\n      swap2\n      sub\n      swap1\n      keccak256\n        /* \"perpus.sol\":2054:2083  bukuMapping[ISBN].tahunDibuat */\n      0x02\n      add\n      sload\n        /* \"perpus.sol\":2054:2088  bukuMapping[ISBN].tahunDibuat != 0 */\n      sub\n        /* \"perpus.sol\":2033:2127  require(... */\n      tag_100\n      jumpi\n      mload(0x40)\n      0x08c379a000000000000000000000000000000000000000000000000000000000\n      dup2\n      mstore\n      0x04\n      add\n      tag_101\n      swap1\n      tag_71\n      jump\t// in\n    tag_101:\n      mload(0x40)\n      dup1\n      swap2\n      sub\n      swap1\n      revert\n    tag_100:\n        /* \"perpus.sol\":2145:2156  bukuMapping */\n      0x00\n        /* \"perpus.sol\":2157:2161  ISBN */\n      dup2\n        /* \"perpus.sol\":2145:2162  bukuMapping[ISBN] */\n      mload(0x40)\n      tag_102\n      swap2\n      swap1\n      tag_55\n      jump\t// in\n    tag_102:\n      swap1\n      dup2\n      mstore\n      0x20\n      add\n      mload(0x40)\n      dup1\n      swap2\n      sub\n      swap1\n      keccak256\n      0x00\n        /* \"perpus.sol\":2138:2162  delete bukuMapping[ISBN] */\n      dup1\n      dup3\n      add\n      0x00\n      tag_103\n      swap2\n      swap1\n      tag_104\n      jump\t// in\n    tag_103:\n      0x01\n      dup3\n      add\n      0x00\n      tag_105\n      swap2\n      swap1\n      tag_104\n      jump\t// in\n    tag_105:\n      0x02\n      dup3\n      add\n      0x00\n      swap1\n      sstore\n      0x03\n      dup3\n      add\n      0x00\n      tag_106\n      swap2\n      swap1\n      tag_104\n      jump\t// in\n    tag_106:\n      pop\n      pop\n        /* \"perpus.sol\":1892:2169  function hapusBuku(string memory ISBN) public hanyaAdmin {... */\n      pop\n      jump\t// out\n        /* \"perpus.sol\":573:593  address public admin */\n    tag_30:\n      0x01\n      0x00\n      swap1\n      sload\n      swap1\n      0x0100\n      exp\n      swap1\n      div\n      0xffffffffffffffffffffffffffffffffffffffff\n      and\n      dup2\n      jump\t// out\n    tag_104:\n      pop\n      dup1\n      sload\n      tag_107\n      swap1\n      tag_34\n      jump\t// in\n    tag_107:\n      0x00\n      dup3\n      sstore\n      dup1\n      0x1f\n      lt\n      tag_109\n      jumpi\n      pop\n      jump(tag_108)\n    tag_109:\n      0x1f\n      add\n      0x20\n      swap1\n      div\n      swap1\n      0x00\n      mstore\n      keccak256(0x00, 0x20)\n      swap1\n      dup2\n      add\n      swap1\n      tag_110\n      swap2\n      swap1\n      tag_111\n      jump\t// in\n    tag_110:\n    tag_108:\n      pop\n      jump\t// out\n    tag_111:\n    tag_112:\n      dup1\n      dup3\n      gt\n      iszero\n      tag_113\n      jumpi\n      0x00\n      dup2\n      0x00\n      swap1\n      sstore\n      pop\n      0x01\n      add\n      jump(tag_112)\n    tag_113:\n      pop\n      swap1\n      jump\t// out\n        /* \"#utility.yul\":7:82   */\n    tag_114:\n        /* \"#utility.yul\":40:46   */\n      0x00\n        /* \"#utility.yul\":73:75   */\n      0x40\n        /* \"#utility.yul\":67:76   */\n      mload\n        /* \"#utility.yul\":57:76   */\n      swap1\n      pop\n        /* \"#utility.yul\":7:82   */\n      swap1\n      jump\t// out\n        /* \"#utility.yul\":88:205   */\n    tag_115:\n        /* \"#utility.yul\":197:198   */\n      0x00\n        /* \"#utility.yul\":194:195   */\n      dup1\n        /* \"#utility.yul\":187:199   */\n      revert\n        /* \"#utility.yul\":211:328   */\n    tag_116:\n        /* \"#utility.yul\":320:321   */\n      0x00\n        /* \"#utility.yul\":317:318   */\n      dup1\n        /* \"#utility.yul\":310:322   */\n      revert\n        /* \"#utility.yul\":334:451   */\n    tag_117:\n        /* \"#utility.yul\":443:444   */\n      0x00\n        /* \"#utility.yul\":440:441   */\n      dup1\n        /* \"#utility.yul\":433:445   */\n      revert\n        /* \"#utility.yul\":457:574   */\n    tag_118:\n        /* \"#utility.yul\":566:567   */\n      0x00\n        /* \"#utility.yul\":563:564   */\n      dup1\n        /* \"#utility.yul\":556:568   */\n      revert\n        /* \"#utility.yul\":580:682   */\n    tag_119:\n        /* \"#utility.yul\":621:627   */\n      0x00\n        /* \"#utility.yul\":672:674   */\n      0x1f\n        /* \"#utility.yul\":668:675   */\n      not\n        /* \"#utility.yul\":663:665   */\n      0x1f\n        /* \"#utility.yul\":656:661   */\n      dup4\n        /* \"#utility.yul\":652:666   */\n      add\n        /* \"#utility.yul\":648:676   */\n      and\n        /* \"#utility.yul\":638:676   */\n      swap1\n      pop\n        /* \"#utility.yul\":580:682   */\n      swap2\n      swap1\n      pop\n      jump\t// out\n        /* \"#utility.yul\":688:868   */\n    tag_120:\n        /* \"#utility.yul\":736:813   */\n      0x4e487b7100000000000000000000000000000000000000000000000000000000\n        /* \"#utility.yul\":733:734   */\n      0x00\n        /* \"#utility.yul\":726:814   */\n      mstore\n        /* \"#utility.yul\":833:837   */\n      0x41\n        /* \"#utility.yul\":830:831   */\n      0x04\n        /* \"#utility.yul\":823:838   */\n      mstore\n        /* \"#utility.yul\":857:861   */\n      0x24\n        /* \"#utility.yul\":854:855   */\n      0x00\n        /* \"#utility.yul\":847:862   */\n      revert\n        /* \"#utility.yul\":874:1155   */\n    tag_121:\n        /* \"#utility.yul\":957:984   */\n      tag_171\n        /* \"#utility.yul\":979:983   */\n      dup3\n        /* \"#utility.yul\":957:984   */\n      tag_119\n      jump\t// in\n    tag_171:\n        /* \"#utility.yul\":949:955   */\n      dup2\n        /* \"#utility.yul\":945:985   */\n      add\n        /* \"#utility.yul\":1087:1093   */\n      dup2\n        /* \"#utility.yul\":1075:1085   */\n      dup2\n        /* \"#utility.yul\":1072:1094   */\n      lt\n        /* \"#utility.yul\":1051:1069   */\n      0xffffffffffffffff\n        /* \"#utility.yul\":1039:1049   */\n      dup3\n        /* \"#utility.yul\":1036:1070   */\n      gt\n        /* \"#utility.yul\":1033:1095   */\n      or\n        /* \"#utility.yul\":1030:1118   */\n      iszero\n      tag_172\n      jumpi\n        /* \"#utility.yul\":1098:1116   */\n      tag_173\n      tag_120\n      jump\t// in\n    tag_173:\n        /* \"#utility.yul\":1030:1118   */\n    tag_172:\n        /* \"#utility.yul\":1138:1148   */\n      dup1\n        /* \"#utility.yul\":1134:1136   */\n      0x40\n        /* \"#utility.yul\":1127:1149   */\n      mstore\n        /* \"#utility.yul\":917:1155   */\n      pop\n        /* \"#utility.yul\":874:1155   */\n      pop\n      pop\n      jump\t// out\n        /* \"#utility.yul\":1161:1290   */\n    tag_122:\n        /* \"#utility.yul\":1195:1201   */\n      0x00\n        /* \"#utility.yul\":1222:1242   */\n      tag_175\n      tag_114\n      jump\t// in\n    tag_175:\n        /* \"#utility.yul\":1212:1242   */\n      swap1\n      pop\n        /* \"#utility.yul\":1251:1284   */\n      tag_176\n        /* \"#utility.yul\":1279:1283   */\n      dup3\n        /* \"#utility.yul\":1271:1277   */\n      dup3\n        /* \"#utility.yul\":1251:1284   */\n      tag_121\n      jump\t// in\n    tag_176:\n        /* \"#utility.yul\":1161:1290   */\n      swap2\n      swap1\n      pop\n      jump\t// out\n        /* \"#utility.yul\":1296:1604   */\n    tag_123:\n        /* \"#utility.yul\":1358:1362   */\n      0x00\n        /* \"#utility.yul\":1448:1466   */\n      0xffffffffffffffff\n        /* \"#utility.yul\":1440:1446   */\n      dup3\n        /* \"#utility.yul\":1437:1467   */\n      gt\n        /* \"#utility.yul\":1434:1490   */\n      iszero\n      tag_178\n      jumpi\n        /* \"#utility.yul\":1470:1488   */\n      tag_179\n      tag_120\n      jump\t// in\n    tag_179:\n        /* \"#utility.yul\":1434:1490   */\n    tag_178:\n        /* \"#utility.yul\":1508:1537   */\n      tag_180\n        /* \"#utility.yul\":1530:1536   */\n      dup3\n        /* \"#utility.yul\":1508:1537   */\n      tag_119\n      jump\t// in\n    tag_180:\n        /* \"#utility.yul\":1500:1537   */\n      swap1\n      pop\n        /* \"#utility.yul\":1592:1596   */\n      0x20\n        /* \"#utility.yul\":1586:1590   */\n      dup2\n        /* \"#utility.yul\":1582:1597   */\n      add\n        /* \"#utility.yul\":1574:1597   */\n      swap1\n      pop\n        /* \"#utility.yul\":1296:1604   */\n      swap2\n      swap1\n      pop\n      jump\t// out\n        /* \"#utility.yul\":1610:1756   */\n    tag_124:\n        /* \"#utility.yul\":1707:1713   */\n      dup3\n        /* \"#utility.yul\":1702:1705   */\n      dup2\n        /* \"#utility.yul\":1697:1700   */\n      dup4\n        /* \"#utility.yul\":1684:1714   */\n      calldatacopy\n        /* \"#utility.yul\":1748:1749   */\n      0x00\n        /* \"#utility.yul\":1739:1745   */\n      dup4\n        /* \"#utility.yul\":1734:1737   */\n      dup4\n        /* \"#utility.yul\":1730:1746   */\n      add\n        /* \"#utility.yul\":1723:1750   */\n      mstore\n        /* \"#utility.yul\":1610:1756   */\n      pop\n      pop\n      pop\n      jump\t// out\n        /* \"#utility.yul\":1762:2187   */\n    tag_125:\n        /* \"#utility.yul\":1840:1845   */\n      0x00\n        /* \"#utility.yul\":1865:1931   */\n      tag_183\n        /* \"#utility.yul\":1881:1930   */\n      tag_184\n        /* \"#utility.yul\":1923:1929   */\n      dup5\n        /* \"#utility.yul\":1881:1930   */\n      tag_123\n      jump\t// in\n    tag_184:\n        /* \"#utility.yul\":1865:1931   */\n      tag_122\n      jump\t// in\n    tag_183:\n        /* \"#utility.yul\":1856:1931   */\n      swap1\n      pop\n        /* \"#utility.yul\":1954:1960   */\n      dup3\n        /* \"#utility.yul\":1947:1952   */\n      dup2\n        /* \"#utility.yul\":1940:1961   */\n      mstore\n        /* \"#utility.yul\":1992:1996   */\n      0x20\n        /* \"#utility.yul\":1985:1990   */\n      dup2\n        /* \"#utility.yul\":1981:1997   */\n      add\n        /* \"#utility.yul\":2030:2033   */\n      dup5\n        /* \"#utility.yul\":2021:2027   */\n      dup5\n        /* \"#utility.yul\":2016:2019   */\n      dup5\n        /* \"#utility.yul\":2012:2028   */\n      add\n        /* \"#utility.yul\":2009:2034   */\n      gt\n        /* \"#utility.yul\":2006:2118   */\n      iszero\n      tag_185\n      jumpi\n        /* \"#utility.yul\":2037:2116   */\n      tag_186\n      tag_118\n      jump\t// in\n    tag_186:\n        /* \"#utility.yul\":2006:2118   */\n    tag_185:\n        /* \"#utility.yul\":2127:2181   */\n      tag_187\n        /* \"#utility.yul\":2174:2180   */\n      dup5\n        /* \"#utility.yul\":2169:2172   */\n      dup3\n        /* \"#utility.yul\":2164:2167   */\n      dup6\n        /* \"#utility.yul\":2127:2181   */\n      tag_124\n      jump\t// in\n    tag_187:\n        /* \"#utility.yul\":1846:2187   */\n      pop\n        /* \"#utility.yul\":1762:2187   */\n      swap4\n      swap3\n      pop\n      pop\n      pop\n      jump\t// out\n        /* \"#utility.yul\":2207:2547   */\n    tag_126:\n        /* \"#utility.yul\":2263:2268   */\n      0x00\n        /* \"#utility.yul\":2312:2315   */\n      dup3\n        /* \"#utility.yul\":2305:2309   */\n      0x1f\n        /* \"#utility.yul\":2297:2303   */\n      dup4\n        /* \"#utility.yul\":2293:2310   */\n      add\n        /* \"#utility.yul\":2289:2316   */\n      slt\n        /* \"#utility.yul\":2279:2401   */\n      tag_189\n      jumpi\n        /* \"#utility.yul\":2320:2399   */\n      tag_190\n      tag_117\n      jump\t// in\n    tag_190:\n        /* \"#utility.yul\":2279:2401   */\n    tag_189:\n        /* \"#utility.yul\":2437:2443   */\n      dup2\n        /* \"#utility.yul\":2424:2444   */\n      calldataload\n        /* \"#utility.yul\":2462:2541   */\n      tag_191\n        /* \"#utility.yul\":2537:2540   */\n      dup5\n        /* \"#utility.yul\":2529:2535   */\n      dup3\n        /* \"#utility.yul\":2522:2526   */\n      0x20\n        /* \"#utility.yul\":2514:2520   */\n      dup7\n        /* \"#utility.yul\":2510:2527   */\n      add\n        /* \"#utility.yul\":2462:2541   */\n      tag_125\n      jump\t// in\n    tag_191:\n        /* \"#utility.yul\":2453:2541   */\n      swap2\n      pop\n        /* \"#utility.yul\":2269:2547   */\n      pop\n        /* \"#utility.yul\":2207:2547   */\n      swap3\n      swap2\n      pop\n      pop\n      jump\t// out\n        /* \"#utility.yul\":2553:3062   */\n    tag_11:\n        /* \"#utility.yul\":2622:2628   */\n      0x00\n        /* \"#utility.yul\":2671:2673   */\n      0x20\n        /* \"#utility.yul\":2659:2668   */\n      dup3\n        /* \"#utility.yul\":2650:2657   */\n      dup5\n        /* \"#utility.yul\":2646:2669   */\n      sub\n        /* \"#utility.yul\":2642:2674   */\n      slt\n        /* \"#utility.yul\":2639:2758   */\n      iszero\n      tag_193\n      jumpi\n        /* \"#utility.yul\":2677:2756   */\n      tag_194\n      tag_115\n      jump\t// in\n    tag_194:\n        /* \"#utility.yul\":2639:2758   */\n    tag_193:\n        /* \"#utility.yul\":2825:2826   */\n      0x00\n        /* \"#utility.yul\":2814:2823   */\n      dup3\n        /* \"#utility.yul\":2810:2827   */\n      add\n        /* \"#utility.yul\":2797:2828   */\n      calldataload\n        /* \"#utility.yul\":2855:2873   */\n      0xffffffffffffffff\n        /* \"#utility.yul\":2847:2853   */\n      dup2\n        /* \"#utility.yul\":2844:2874   */\n      gt\n        /* \"#utility.yul\":2841:2958   */\n      iszero\n      tag_195\n      jumpi\n        /* \"#utility.yul\":2877:2956   */\n      tag_196\n      tag_116\n      jump\t// in\n    tag_196:\n        /* \"#utility.yul\":2841:2958   */\n    tag_195:\n        /* \"#utility.yul\":2982:3045   */\n      tag_197\n        /* \"#utility.yul\":3037:3044   */\n      dup5\n        /* \"#utility.yul\":3028:3034   */\n      dup3\n        /* \"#utility.yul\":3017:3026   */\n      dup6\n        /* \"#utility.yul\":3013:3035   */\n      add\n        /* \"#utility.yul\":2982:3045   */\n      tag_126\n      jump\t// in\n    tag_197:\n        /* \"#utility.yul\":2972:3045   */\n      swap2\n      pop\n        /* \"#utility.yul\":2768:3055   */\n      pop\n        /* \"#utility.yul\":2553:3062   */\n      swap3\n      swap2\n      pop\n      pop\n      jump\t// out\n        /* \"#utility.yul\":3068:3167   */\n    tag_127:\n        /* \"#utility.yul\":3120:3126   */\n      0x00\n        /* \"#utility.yul\":3154:3159   */\n      dup2\n        /* \"#utility.yul\":3148:3160   */\n      mload\n        /* \"#utility.yul\":3138:3160   */\n      swap1\n      pop\n        /* \"#utility.yul\":3068:3167   */\n      swap2\n      swap1\n      pop\n      jump\t// out\n        /* \"#utility.yul\":3173:3342   */\n    tag_128:\n        /* \"#utility.yul\":3257:3268   */\n      0x00\n        /* \"#utility.yul\":3291:3297   */\n      dup3\n        /* \"#utility.yul\":3286:3289   */\n      dup3\n        /* \"#utility.yul\":3279:3298   */\n      mstore\n        /* \"#utility.yul\":3331:3335   */\n      0x20\n        /* \"#utility.yul\":3326:3329   */\n      dup3\n        /* \"#utility.yul\":3322:3336   */\n      add\n        /* \"#utility.yul\":3307:3336   */\n      swap1\n      pop\n        /* \"#utility.yul\":3173:3342   */\n      swap3\n      swap2\n      pop\n      pop\n      jump\t// out\n        /* \"#utility.yul\":3348:3594   */\n    tag_129:\n        /* \"#utility.yul\":3429:3430   */\n      0x00\n        /* \"#utility.yul\":3439:3552   */\n    tag_201:\n        /* \"#utility.yul\":3453:3459   */\n      dup4\n        /* \"#utility.yul\":3450:3451   */\n      dup2\n        /* \"#utility.yul\":3447:3460   */\n      lt\n        /* \"#utility.yul\":3439:3552   */\n      iszero\n      tag_203\n      jumpi\n        /* \"#utility.yul\":3538:3539   */\n      dup1\n        /* \"#utility.yul\":3533:3536   */\n      dup3\n        /* \"#utility.yul\":3529:3540   */\n      add\n        /* \"#utility.yul\":3523:3541   */\n      mload\n        /* \"#utility.yul\":3519:3520   */\n      dup2\n        /* \"#utility.yul\":3514:3517   */\n      dup5\n        /* \"#utility.yul\":3510:3521   */\n      add\n        /* \"#utility.yul\":3503:3542   */\n      mstore\n        /* \"#utility.yul\":3475:3477   */\n      0x20\n        /* \"#utility.yul\":3472:3473   */\n      dup2\n        /* \"#utility.yul\":3468:3478   */\n      add\n        /* \"#utility.yul\":3463:3478   */\n      swap1\n      pop\n        /* \"#utility.yul\":3439:3552   */\n      jump(tag_201)\n    tag_203:\n        /* \"#utility.yul\":3586:3587   */\n      0x00\n        /* \"#utility.yul\":3577:3583   */\n      dup5\n        /* \"#utility.yul\":3572:3575   */\n      dup5\n        /* \"#utility.yul\":3568:3584   */\n      add\n        /* \"#utility.yul\":3561:3588   */\n      mstore\n        /* \"#utility.yul\":3410:3594   */\n      pop\n        /* \"#utility.yul\":3348:3594   */\n      pop\n      pop\n      pop\n      jump\t// out\n        /* \"#utility.yul\":3600:3977   */\n    tag_130:\n        /* \"#utility.yul\":3688:3691   */\n      0x00\n        /* \"#utility.yul\":3716:3755   */\n      tag_205\n        /* \"#utility.yul\":3749:3754   */\n      dup3\n        /* \"#utility.yul\":3716:3755   */\n      tag_127\n      jump\t// in\n    tag_205:\n        /* \"#utility.yul\":3771:3842   */\n      tag_206\n        /* \"#utility.yul\":3835:3841   */\n      dup2\n        /* \"#utility.yul\":3830:3833   */\n      dup6\n        /* \"#utility.yul\":3771:3842   */\n      tag_128\n      jump\t// in\n    tag_206:\n        /* \"#utility.yul\":3764:3842   */\n      swap4\n      pop\n        /* \"#utility.yul\":3851:3916   */\n      tag_207\n        /* \"#utility.yul\":3909:3915   */\n      dup2\n        /* \"#utility.yul\":3904:3907   */\n      dup6\n        /* \"#utility.yul\":3897:3901   */\n      0x20\n        /* \"#utility.yul\":3890:3895   */\n      dup7\n        /* \"#utility.yul\":3886:3902   */\n      add\n        /* \"#utility.yul\":3851:3916   */\n      tag_129\n      jump\t// in\n    tag_207:\n        /* \"#utility.yul\":3941:3970   */\n      tag_208\n        /* \"#utility.yul\":3963:3969   */\n      dup2\n        /* \"#utility.yul\":3941:3970   */\n      tag_119\n      jump\t// in\n    tag_208:\n        /* \"#utility.yul\":3936:3939   */\n      dup5\n        /* \"#utility.yul\":3932:3971   */\n      add\n        /* \"#utility.yul\":3925:3971   */\n      swap2\n      pop\n        /* \"#utility.yul\":3692:3977   */\n      pop\n        /* \"#utility.yul\":3600:3977   */\n      swap3\n      swap2\n      pop\n      pop\n      jump\t// out\n        /* \"#utility.yul\":3983:4060   */\n    tag_131:\n        /* \"#utility.yul\":4020:4027   */\n      0x00\n        /* \"#utility.yul\":4049:4054   */\n      dup2\n        /* \"#utility.yul\":4038:4054   */\n      swap1\n      pop\n        /* \"#utility.yul\":3983:4060   */\n      swap2\n      swap1\n      pop\n      jump\t// out\n        /* \"#utility.yul\":4066:4184   */\n    tag_132:\n        /* \"#utility.yul\":4153:4177   */\n      tag_211\n        /* \"#utility.yul\":4171:4176   */\n      dup2\n        /* \"#utility.yul\":4153:4177   */\n      tag_131\n      jump\t// in\n    tag_211:\n        /* \"#utility.yul\":4148:4151   */\n      dup3\n        /* \"#utility.yul\":4141:4178   */\n      mstore\n        /* \"#utility.yul\":4066:4184   */\n      pop\n      pop\n      jump\t// out\n        /* \"#utility.yul\":4190:5016   */\n    tag_14:\n        /* \"#utility.yul\":4427:4431   */\n      0x00\n        /* \"#utility.yul\":4465:4468   */\n      0x80\n        /* \"#utility.yul\":4454:4463   */\n      dup3\n        /* \"#utility.yul\":4450:4469   */\n      add\n        /* \"#utility.yul\":4442:4469   */\n      swap1\n      pop\n        /* \"#utility.yul\":4515:4524   */\n      dup2\n        /* \"#utility.yul\":4509:4513   */\n      dup2\n        /* \"#utility.yul\":4505:4525   */\n      sub\n        /* \"#utility.yul\":4501:4502   */\n      0x00\n        /* \"#utility.yul\":4490:4499   */\n      dup4\n        /* \"#utility.yul\":4486:4503   */\n      add\n        /* \"#utility.yul\":4479:4526   */\n      mstore\n        /* \"#utility.yul\":4543:4621   */\n      tag_213\n        /* \"#utility.yul\":4616:4620   */\n      dup2\n        /* \"#utility.yul\":4607:4613   */\n      dup8\n        /* \"#utility.yul\":4543:4621   */\n      tag_130\n      jump\t// in\n    tag_213:\n        /* \"#utility.yul\":4535:4621   */\n      swap1\n      pop\n        /* \"#utility.yul\":4668:4677   */\n      dup2\n        /* \"#utility.yul\":4662:4666   */\n      dup2\n        /* \"#utility.yul\":4658:4678   */\n      sub\n        /* \"#utility.yul\":4653:4655   */\n      0x20\n        /* \"#utility.yul\":4642:4651   */\n      dup4\n        /* \"#utility.yul\":4638:4656   */\n      add\n        /* \"#utility.yul\":4631:4679   */\n      mstore\n        /* \"#utility.yul\":4696:4774   */\n      tag_214\n        /* \"#utility.yul\":4769:4773   */\n      dup2\n        /* \"#utility.yul\":4760:4766   */\n      dup7\n        /* \"#utility.yul\":4696:4774   */\n      tag_130\n      jump\t// in\n    tag_214:\n        /* \"#utility.yul\":4688:4774   */\n      swap1\n      pop\n        /* \"#utility.yul\":4784:4856   */\n      tag_215\n        /* \"#utility.yul\":4852:4854   */\n      0x40\n        /* \"#utility.yul\":4841:4850   */\n      dup4\n        /* \"#utility.yul\":4837:4855   */\n      add\n        /* \"#utility.yul\":4828:4834   */\n      dup6\n        /* \"#utility.yul\":4784:4856   */\n      tag_132\n      jump\t// in\n    tag_215:\n        /* \"#utility.yul\":4903:4912   */\n      dup2\n        /* \"#utility.yul\":4897:4901   */\n      dup2\n        /* \"#utility.yul\":4893:4913   */\n      sub\n        /* \"#utility.yul\":4888:4890   */\n      0x60\n        /* \"#utility.yul\":4877:4886   */\n      dup4\n        /* \"#utility.yul\":4873:4891   */\n      add\n        /* \"#utility.yul\":4866:4914   */\n      mstore\n        /* \"#utility.yul\":4931:5009   */\n      tag_216\n        /* \"#utility.yul\":5004:5008   */\n      dup2\n        /* \"#utility.yul\":4995:5001   */\n      dup5\n        /* \"#utility.yul\":4931:5009   */\n      tag_130\n      jump\t// in\n    tag_216:\n        /* \"#utility.yul\":4923:5009   */\n      swap1\n      pop\n        /* \"#utility.yul\":4190:5016   */\n      swap6\n      swap5\n      pop\n      pop\n      pop\n      pop\n      pop\n      jump\t// out\n        /* \"#utility.yul\":5022:5144   */\n    tag_133:\n        /* \"#utility.yul\":5095:5119   */\n      tag_218\n        /* \"#utility.yul\":5113:5118   */\n      dup2\n        /* \"#utility.yul\":5095:5119   */\n      tag_131\n      jump\t// in\n    tag_218:\n        /* \"#utility.yul\":5088:5093   */\n      dup2\n        /* \"#utility.yul\":5085:5120   */\n      eq\n        /* \"#utility.yul\":5075:5138   */\n      tag_219\n      jumpi\n        /* \"#utility.yul\":5134:5135   */\n      0x00\n        /* \"#utility.yul\":5131:5132   */\n      dup1\n        /* \"#utility.yul\":5124:5136   */\n      revert\n        /* \"#utility.yul\":5075:5138   */\n    tag_219:\n        /* \"#utility.yul\":5022:5144   */\n      pop\n      jump\t// out\n        /* \"#utility.yul\":5150:5289   */\n    tag_134:\n        /* \"#utility.yul\":5196:5201   */\n      0x00\n        /* \"#utility.yul\":5234:5240   */\n      dup2\n        /* \"#utility.yul\":5221:5241   */\n      calldataload\n        /* \"#utility.yul\":5212:5241   */\n      swap1\n      pop\n        /* \"#utility.yul\":5250:5283   */\n      tag_221\n        /* \"#utility.yul\":5277:5282   */\n      dup2\n        /* \"#utility.yul\":5250:5283   */\n      tag_133\n      jump\t// in\n    tag_221:\n        /* \"#utility.yul\":5150:5289   */\n      swap3\n      swap2\n      pop\n      pop\n      jump\t// out\n        /* \"#utility.yul\":5295:6600   */\n    tag_17:\n        /* \"#utility.yul\":5411:5417   */\n      0x00\n        /* \"#utility.yul\":5419:5425   */\n      dup1\n        /* \"#utility.yul\":5427:5433   */\n      0x00\n        /* \"#utility.yul\":5435:5441   */\n      dup1\n        /* \"#utility.yul\":5484:5487   */\n      0x80\n        /* \"#utility.yul\":5472:5481   */\n      dup6\n        /* \"#utility.yul\":5463:5470   */\n      dup8\n        /* \"#utility.yul\":5459:5482   */\n      sub\n        /* \"#utility.yul\":5455:5488   */\n      slt\n        /* \"#utility.yul\":5452:5572   */\n      iszero\n      tag_223\n      jumpi\n        /* \"#utility.yul\":5491:5570   */\n      tag_224\n      tag_115\n      jump\t// in\n    tag_224:\n        /* \"#utility.yul\":5452:5572   */\n    tag_223:\n        /* \"#utility.yul\":5639:5640   */\n      0x00\n        /* \"#utility.yul\":5628:5637   */\n      dup6\n        /* \"#utility.yul\":5624:5641   */\n      add\n        /* \"#utility.yul\":5611:5642   */\n      calldataload\n        /* \"#utility.yul\":5669:5687   */\n      0xffffffffffffffff\n        /* \"#utility.yul\":5661:5667   */\n      dup2\n        /* \"#utility.yul\":5658:5688   */\n      gt\n        /* \"#utility.yul\":5655:5772   */\n      iszero\n      tag_225\n      jumpi\n        /* \"#utility.yul\":5691:5770   */\n      tag_226\n      tag_116\n      jump\t// in\n    tag_226:\n        /* \"#utility.yul\":5655:5772   */\n    tag_225:\n        /* \"#utility.yul\":5796:5859   */\n      tag_227\n        /* \"#utility.yul\":5851:5858   */\n      dup8\n        /* \"#utility.yul\":5842:5848   */\n      dup3\n        /* \"#utility.yul\":5831:5840   */\n      dup9\n        /* \"#utility.yul\":5827:5849   */\n      add\n        /* \"#utility.yul\":5796:5859   */\n      tag_126\n      jump\t// in\n    tag_227:\n        /* \"#utility.yul\":5786:5859   */\n      swap5\n      pop\n        /* \"#utility.yul\":5582:5869   */\n      pop\n        /* \"#utility.yul\":5936:5938   */\n      0x20\n        /* \"#utility.yul\":5925:5934   */\n      dup6\n        /* \"#utility.yul\":5921:5939   */\n      add\n        /* \"#utility.yul\":5908:5940   */\n      calldataload\n        /* \"#utility.yul\":5967:5985   */\n      0xffffffffffffffff\n        /* \"#utility.yul\":5959:5965   */\n      dup2\n        /* \"#utility.yul\":5956:5986   */\n      gt\n        /* \"#utility.yul\":5953:6070   */\n      iszero\n      tag_228\n      jumpi\n        /* \"#utility.yul\":5989:6068   */\n      tag_229\n      tag_116\n      jump\t// in\n    tag_229:\n        /* \"#utility.yul\":5953:6070   */\n    tag_228:\n        /* \"#utility.yul\":6094:6157   */\n      tag_230\n        /* \"#utility.yul\":6149:6156   */\n      dup8\n        /* \"#utility.yul\":6140:6146   */\n      dup3\n        /* \"#utility.yul\":6129:6138   */\n      dup9\n        /* \"#utility.yul\":6125:6147   */\n      add\n        /* \"#utility.yul\":6094:6157   */\n      tag_126\n      jump\t// in\n    tag_230:\n        /* \"#utility.yul\":6084:6157   */\n      swap4\n      pop\n        /* \"#utility.yul\":5879:6167   */\n      pop\n        /* \"#utility.yul\":6206:6208   */\n      0x40\n        /* \"#utility.yul\":6232:6285   */\n      tag_231\n        /* \"#utility.yul\":6277:6284   */\n      dup8\n        /* \"#utility.yul\":6268:6274   */\n      dup3\n        /* \"#utility.yul\":6257:6266   */\n      dup9\n        /* \"#utility.yul\":6253:6275   */\n      add\n        /* \"#utility.yul\":6232:6285   */\n      tag_134\n      jump\t// in\n    tag_231:\n        /* \"#utility.yul\":6222:6285   */\n      swap3\n      pop\n        /* \"#utility.yul\":6177:6295   */\n      pop\n        /* \"#utility.yul\":6362:6364   */\n      0x60\n        /* \"#utility.yul\":6351:6360   */\n      dup6\n        /* \"#utility.yul\":6347:6365   */\n      add\n        /* \"#utility.yul\":6334:6366   */\n      calldataload\n        /* \"#utility.yul\":6393:6411   */\n      0xffffffffffffffff\n        /* \"#utility.yul\":6385:6391   */\n      dup2\n        /* \"#utility.yul\":6382:6412   */\n      gt\n        /* \"#utility.yul\":6379:6496   */\n      iszero\n      tag_232\n      jumpi\n        /* \"#utility.yul\":6415:6494   */\n      tag_233\n      tag_116\n      jump\t// in\n    tag_233:\n        /* \"#utility.yul\":6379:6496   */\n    tag_232:\n        /* \"#utility.yul\":6520:6583   */\n      tag_234\n        /* \"#utility.yul\":6575:6582   */\n      dup8\n        /* \"#utility.yul\":6566:6572   */\n      dup3\n        /* \"#utility.yul\":6555:6564   */\n      dup9\n        /* \"#utility.yul\":6551:6573   */\n      add\n        /* \"#utility.yul\":6520:6583   */\n      tag_126\n      jump\t// in\n    tag_234:\n        /* \"#utility.yul\":6510:6583   */\n      swap2\n      pop\n        /* \"#utility.yul\":6305:6593   */\n      pop\n        /* \"#utility.yul\":5295:6600   */\n      swap3\n      swap6\n      swap2\n      swap5\n      pop\n      swap3\n      pop\n      jump\t// out\n        /* \"#utility.yul\":6606:6732   */\n    tag_135:\n        /* \"#utility.yul\":6643:6650   */\n      0x00\n        /* \"#utility.yul\":6683:6725   */\n      0xffffffffffffffffffffffffffffffffffffffff\n        /* \"#utility.yul\":6676:6681   */\n      dup3\n        /* \"#utility.yul\":6672:6726   */\n      and\n        /* \"#utility.yul\":6661:6726   */\n      swap1\n      pop\n        /* \"#utility.yul\":6606:6732   */\n      swap2\n      swap1\n      pop\n      jump\t// out\n        /* \"#utility.yul\":6738:6834   */\n    tag_136:\n        /* \"#utility.yul\":6775:6782   */\n      0x00\n        /* \"#utility.yul\":6804:6828   */\n      tag_237\n        /* \"#utility.yul\":6822:6827   */\n      dup3\n        /* \"#utility.yul\":6804:6828   */\n      tag_135\n      jump\t// in\n    tag_237:\n        /* \"#utility.yul\":6793:6828   */\n      swap1\n      pop\n        /* \"#utility.yul\":6738:6834   */\n      swap2\n      swap1\n      pop\n      jump\t// out\n        /* \"#utility.yul\":6840:6958   */\n    tag_137:\n        /* \"#utility.yul\":6927:6951   */\n      tag_239\n        /* \"#utility.yul\":6945:6950   */\n      dup2\n        /* \"#utility.yul\":6927:6951   */\n      tag_136\n      jump\t// in\n    tag_239:\n        /* \"#utility.yul\":6922:6925   */\n      dup3\n        /* \"#utility.yul\":6915:6952   */\n      mstore\n        /* \"#utility.yul\":6840:6958   */\n      pop\n      pop\n      jump\t// out\n        /* \"#utility.yul\":6964:7186   */\n    tag_32:\n        /* \"#utility.yul\":7057:7061   */\n      0x00\n        /* \"#utility.yul\":7095:7097   */\n      0x20\n        /* \"#utility.yul\":7084:7093   */\n      dup3\n        /* \"#utility.yul\":7080:7098   */\n      add\n        /* \"#utility.yul\":7072:7098   */\n      swap1\n      pop\n        /* \"#utility.yul\":7108:7179   */\n      tag_241\n        /* \"#utility.yul\":7176:7177   */\n      0x00\n        /* \"#utility.yul\":7165:7174   */\n      dup4\n        /* \"#utility.yul\":7161:7178   */\n      add\n        /* \"#utility.yul\":7152:7158   */\n      dup5\n        /* \"#utility.yul\":7108:7179   */\n      tag_137\n      jump\t// in\n    tag_241:\n        /* \"#utility.yul\":6964:7186   */\n      swap3\n      swap2\n      pop\n      pop\n      jump\t// out\n        /* \"#utility.yul\":7192:7372   */\n    tag_138:\n        /* \"#utility.yul\":7240:7317   */\n      0x4e487b7100000000000000000000000000000000000000000000000000000000\n        /* \"#utility.yul\":7237:7238   */\n      0x00\n        /* \"#utility.yul\":7230:7318   */\n      mstore\n        /* \"#utility.yul\":7337:7341   */\n      0x22\n        /* \"#utility.yul\":7334:7335   */\n      0x04\n        /* \"#utility.yul\":7327:7342   */\n      mstore\n        /* \"#utility.yul\":7361:7365   */\n      0x24\n        /* \"#utility.yul\":7358:7359   */\n      0x00\n        /* \"#utility.yul\":7351:7366   */\n      revert\n        /* \"#utility.yul\":7378:7698   */\n    tag_34:\n        /* \"#utility.yul\":7422:7428   */\n      0x00\n        /* \"#utility.yul\":7459:7460   */\n      0x02\n        /* \"#utility.yul\":7453:7457   */\n      dup3\n        /* \"#utility.yul\":7449:7461   */\n      div\n        /* \"#utility.yul\":7439:7461   */\n      swap1\n      pop\n        /* \"#utility.yul\":7506:7507   */\n      0x01\n        /* \"#utility.yul\":7500:7504   */\n      dup3\n        /* \"#utility.yul\":7496:7508   */\n      and\n        /* \"#utility.yul\":7527:7545   */\n      dup1\n        /* \"#utility.yul\":7517:7598   */\n      tag_244\n      jumpi\n        /* \"#utility.yul\":7583:7587   */\n      0x7f\n        /* \"#utility.yul\":7575:7581   */\n      dup3\n        /* \"#utility.yul\":7571:7588   */\n      and\n        /* \"#utility.yul\":7561:7588   */\n      swap2\n      pop\n        /* \"#utility.yul\":7517:7598   */\n    tag_244:\n        /* \"#utility.yul\":7645:7647   */\n      0x20\n        /* \"#utility.yul\":7637:7643   */\n      dup3\n        /* \"#utility.yul\":7634:7648   */\n      lt\n        /* \"#utility.yul\":7614:7632   */\n      dup2\n        /* \"#utility.yul\":7611:7649   */\n      sub\n        /* \"#utility.yul\":7608:7692   */\n      tag_245\n      jumpi\n        /* \"#utility.yul\":7664:7682   */\n      tag_246\n      tag_138\n      jump\t// in\n    tag_246:\n        /* \"#utility.yul\":7608:7692   */\n    tag_245:\n        /* \"#utility.yul\":7429:7698   */\n      pop\n        /* \"#utility.yul\":7378:7698   */\n      swap2\n      swap1\n      pop\n      jump\t// out\n        /* \"#utility.yul\":7704:7939   */\n    tag_139:\n        /* \"#utility.yul\":7844:7878   */\n      0x416b736573206469746f6c616b2e2048616e79612061646d696e2079616e6720\n        /* \"#utility.yul\":7840:7841   */\n      0x00\n        /* \"#utility.yul\":7832:7838   */\n      dup3\n        /* \"#utility.yul\":7828:7842   */\n      add\n        /* \"#utility.yul\":7821:7879   */\n      mstore\n        /* \"#utility.yul\":7913:7931   */\n      0x6461706174206d656e67616b7365732e00000000000000000000000000000000\n        /* \"#utility.yul\":7908:7910   */\n      0x20\n        /* \"#utility.yul\":7900:7906   */\n      dup3\n        /* \"#utility.yul\":7896:7911   */\n      add\n        /* \"#utility.yul\":7889:7932   */\n      mstore\n        /* \"#utility.yul\":7704:7939   */\n      pop\n      jump\t// out\n        /* \"#utility.yul\":7945:8311   */\n    tag_140:\n        /* \"#utility.yul\":8087:8090   */\n      0x00\n        /* \"#utility.yul\":8108:8175   */\n      tag_249\n        /* \"#utility.yul\":8172:8174   */\n      0x30\n        /* \"#utility.yul\":8167:8170   */\n      dup4\n        /* \"#utility.yul\":8108:8175   */\n      tag_128\n      jump\t// in\n    tag_249:\n        /* \"#utility.yul\":8101:8175   */\n      swap2\n      pop\n        /* \"#utility.yul\":8184:8277   */\n      tag_250\n        /* \"#utility.yul\":8273:8276   */\n      dup3\n        /* \"#utility.yul\":8184:8277   */\n      tag_139\n      jump\t// in\n    tag_250:\n        /* \"#utility.yul\":8302:8304   */\n      0x40\n        /* \"#utility.yul\":8297:8300   */\n      dup3\n        /* \"#utility.yul\":8293:8305   */\n      add\n        /* \"#utility.yul\":8286:8305   */\n      swap1\n      pop\n        /* \"#utility.yul\":7945:8311   */\n      swap2\n      swap1\n      pop\n      jump\t// out\n        /* \"#utility.yul\":8317:8736   */\n    tag_52:\n        /* \"#utility.yul\":8483:8487   */\n      0x00\n        /* \"#utility.yul\":8521:8523   */\n      0x20\n        /* \"#utility.yul\":8510:8519   */\n      dup3\n        /* \"#utility.yul\":8506:8524   */\n      add\n        /* \"#utility.yul\":8498:8524   */\n      swap1\n      pop\n        /* \"#utility.yul\":8570:8579   */\n      dup2\n        /* \"#utility.yul\":8564:8568   */\n      dup2\n        /* \"#utility.yul\":8560:8580   */\n      sub\n        /* \"#utility.yul\":8556:8557   */\n      0x00\n        /* \"#utility.yul\":8545:8554   */\n      dup4\n        /* \"#utility.yul\":8541:8558   */\n      add\n        /* \"#utility.yul\":8534:8581   */\n      mstore\n        /* \"#utility.yul\":8598:8729   */\n      tag_252\n        /* \"#utility.yul\":8724:8728   */\n      dup2\n        /* \"#utility.yul\":8598:8729   */\n      tag_140\n      jump\t// in\n    tag_252:\n        /* \"#utility.yul\":8590:8729   */\n      swap1\n      pop\n        /* \"#utility.yul\":8317:8736   */\n      swap2\n      swap1\n      pop\n      jump\t// out\n        /* \"#utility.yul\":8742:8890   */\n    tag_141:\n        /* \"#utility.yul\":8844:8855   */\n      0x00\n        /* \"#utility.yul\":8881:8884   */\n      dup2\n        /* \"#utility.yul\":8866:8884   */\n      swap1\n      pop\n        /* \"#utility.yul\":8742:8890   */\n      swap3\n      swap2\n      pop\n      pop\n      jump\t// out\n        /* \"#utility.yul\":8896:9286   */\n    tag_142:\n        /* \"#utility.yul\":9002:9005   */\n      0x00\n        /* \"#utility.yul\":9030:9069   */\n      tag_255\n        /* \"#utility.yul\":9063:9068   */\n      dup3\n        /* \"#utility.yul\":9030:9069   */\n      tag_127\n      jump\t// in\n    tag_255:\n        /* \"#utility.yul\":9085:9174   */\n      tag_256\n        /* \"#utility.yul\":9167:9173   */\n      dup2\n        /* \"#utility.yul\":9162:9165   */\n      dup6\n        /* \"#utility.yul\":9085:9174   */\n      tag_141\n      jump\t// in\n    tag_256:\n        /* \"#utility.yul\":9078:9174   */\n      swap4\n      pop\n        /* \"#utility.yul\":9183:9248   */\n      tag_257\n        /* \"#utility.yul\":9241:9247   */\n      dup2\n        /* \"#utility.yul\":9236:9239   */\n      dup6\n        /* \"#utility.yul\":9229:9233   */\n      0x20\n        /* \"#utility.yul\":9222:9227   */\n      dup7\n        /* \"#utility.yul\":9218:9234   */\n      add\n        /* \"#utility.yul\":9183:9248   */\n      tag_129\n      jump\t// in\n    tag_257:\n        /* \"#utility.yul\":9273:9279   */\n      dup1\n        /* \"#utility.yul\":9268:9271   */\n      dup5\n        /* \"#utility.yul\":9264:9280   */\n      add\n        /* \"#utility.yul\":9257:9280   */\n      swap2\n      pop\n        /* \"#utility.yul\":9006:9286   */\n      pop\n        /* \"#utility.yul\":8896:9286   */\n      swap3\n      swap2\n      pop\n      pop\n      jump\t// out\n        /* \"#utility.yul\":9292:9567   */\n    tag_55:\n        /* \"#utility.yul\":9424:9427   */\n      0x00\n        /* \"#utility.yul\":9446:9541   */\n      tag_259\n        /* \"#utility.yul\":9537:9540   */\n      dup3\n        /* \"#utility.yul\":9528:9534   */\n      dup5\n        /* \"#utility.yul\":9446:9541   */\n      tag_142\n      jump\t// in\n    tag_259:\n        /* \"#utility.yul\":9439:9541   */\n      swap2\n      pop\n        /* \"#utility.yul\":9558:9561   */\n      dup2\n        /* \"#utility.yul\":9551:9561   */\n      swap1\n      pop\n        /* \"#utility.yul\":9292:9567   */\n      swap3\n      swap2\n      pop\n      pop\n      jump\t// out\n        /* \"#utility.yul\":9573:9744   */\n    tag_143:\n        /* \"#utility.yul\":9713:9736   */\n      0x4953424e20737564616820646967756e616b616e2e0000000000000000000000\n        /* \"#utility.yul\":9709:9710   */\n      0x00\n        /* \"#utility.yul\":9701:9707   */\n      dup3\n        /* \"#utility.yul\":9697:9711   */\n      add\n        /* \"#utility.yul\":9690:9737   */\n      mstore\n        /* \"#utility.yul\":9573:9744   */\n      pop\n      jump\t// out\n        /* \"#utility.yul\":9750:10116   */\n    tag_144:\n        /* \"#utility.yul\":9892:9895   */\n      0x00\n        /* \"#utility.yul\":9913:9980   */\n      tag_262\n        /* \"#utility.yul\":9977:9979   */\n      0x15\n        /* \"#utility.yul\":9972:9975   */\n      dup4\n        /* \"#utility.yul\":9913:9980   */\n      tag_128\n      jump\t// in\n    tag_262:\n        /* \"#utility.yul\":9906:9980   */\n      swap2\n      pop\n        /* \"#utility.yul\":9989:10082   */\n      tag_263\n        /* \"#utility.yul\":10078:10081   */\n      dup3\n        /* \"#utility.yul\":9989:10082   */\n      tag_143\n      jump\t// in\n    tag_263:\n        /* \"#utility.yul\":10107:10109   */\n      0x20\n        /* \"#utility.yul\":10102:10105   */\n      dup3\n        /* \"#utility.yul\":10098:10110   */\n      add\n        /* \"#utility.yul\":10091:10110   */\n      swap1\n      pop\n        /* \"#utility.yul\":9750:10116   */\n      swap2\n      swap1\n      pop\n      jump\t// out\n        /* \"#utility.yul\":10122:10541   */\n    tag_58:\n        /* \"#utility.yul\":10288:10292   */\n      0x00\n        /* \"#utility.yul\":10326:10328   */\n      0x20\n        /* \"#utility.yul\":10315:10324   */\n      dup3\n        /* \"#utility.yul\":10311:10329   */\n      add\n        /* \"#utility.yul\":10303:10329   */\n      swap1\n      pop\n        /* \"#utility.yul\":10375:10384   */\n      dup2\n        /* \"#utility.yul\":10369:10373   */\n      dup2\n        /* \"#utility.yul\":10365:10385   */\n      sub\n        /* \"#utility.yul\":10361:10362   */\n      0x00\n        /* \"#utility.yul\":10350:10359   */\n      dup4\n        /* \"#utility.yul\":10346:10363   */\n      add\n        /* \"#utility.yul\":10339:10386   */\n      mstore\n        /* \"#utility.yul\":10403:10534   */\n      tag_265\n        /* \"#utility.yul\":10529:10533   */\n      dup2\n        /* \"#utility.yul\":10403:10534   */\n      tag_144\n      jump\t// in\n    tag_265:\n        /* \"#utility.yul\":10395:10534   */\n      swap1\n      pop\n        /* \"#utility.yul\":10122:10541   */\n      swap2\n      swap1\n      pop\n      jump\t// out\n        /* \"#utility.yul\":10547:10688   */\n    tag_145:\n        /* \"#utility.yul\":10596:10600   */\n      0x00\n        /* \"#utility.yul\":10619:10622   */\n      dup2\n        /* \"#utility.yul\":10611:10622   */\n      swap1\n      pop\n        /* \"#utility.yul\":10642:10645   */\n      dup2\n        /* \"#utility.yul\":10639:10640   */\n      0x00\n        /* \"#utility.yul\":10632:10646   */\n      mstore\n        /* \"#utility.yul\":10676:10680   */\n      0x20\n        /* \"#utility.yul\":10673:10674   */\n      0x00\n        /* \"#utility.yul\":10663:10681   */\n      keccak256\n        /* \"#utility.yul\":10655:10681   */\n      swap1\n      pop\n        /* \"#utility.yul\":10547:10688   */\n      swap2\n      swap1\n      pop\n      jump\t// out\n        /* \"#utility.yul\":10694:10787   */\n    tag_146:\n        /* \"#utility.yul\":10731:10737   */\n      0x00\n        /* \"#utility.yul\":10778:10780   */\n      0x20\n        /* \"#utility.yul\":10773:10775   */\n      0x1f\n        /* \"#utility.yul\":10766:10771   */\n      dup4\n        /* \"#utility.yul\":10762:10776   */\n      add\n        /* \"#utility.yul\":10758:10781   */\n      div\n        /* \"#utility.yul\":10748:10781   */\n      swap1\n      pop\n        /* \"#utility.yul\":10694:10787   */\n      swap2\n      swap1\n      pop\n      jump\t// out\n        /* \"#utility.yul\":10793:10900   */\n    tag_147:\n        /* \"#utility.yul\":10837:10845   */\n      0x00\n        /* \"#utility.yul\":10887:10892   */\n      dup3\n        /* \"#utility.yul\":10881:10885   */\n      dup3\n        /* \"#utility.yul\":10877:10893   */\n      shl\n        /* \"#utility.yul\":10856:10893   */\n      swap1\n      pop\n        /* \"#utility.yul\":10793:10900   */\n      swap3\n      swap2\n      pop\n      pop\n      jump\t// out\n        /* \"#utility.yul\":10906:11299   */\n    tag_148:\n        /* \"#utility.yul\":10975:10981   */\n      0x00\n        /* \"#utility.yul\":11025:11026   */\n      0x08\n        /* \"#utility.yul\":11013:11023   */\n      dup4\n        /* \"#utility.yul\":11009:11027   */\n      mul\n        /* \"#utility.yul\":11048:11145   */\n      tag_270\n        /* \"#utility.yul\":11078:11144   */\n      0xffffffffffffffffffffffffffffffffffffffffffffffffffffffffffffffff\n        /* \"#utility.yul\":11067:11076   */\n      dup3\n        /* \"#utility.yul\":11048:11145   */\n      tag_147\n      jump\t// in\n    tag_270:\n        /* \"#utility.yul\":11166:11205   */\n      tag_271\n        /* \"#utility.yul\":11196:11204   */\n      dup7\n        /* \"#utility.yul\":11185:11194   */\n      dup4\n        /* \"#utility.yul\":11166:11205   */\n      tag_147\n      jump\t// in\n    tag_271:\n        /* \"#utility.yul\":11154:11205   */\n      swap6\n      pop\n        /* \"#utility.yul\":11238:11242   */\n      dup1\n        /* \"#utility.yul\":11234:11243   */\n      not\n        /* \"#utility.yul\":11227:11232   */\n      dup5\n        /* \"#utility.yul\":11223:11244   */\n      and\n        /* \"#utility.yul\":11214:11244   */\n      swap4\n      pop\n        /* \"#utility.yul\":11287:11291   */\n      dup1\n        /* \"#utility.yul\":11277:11285   */\n      dup7\n        /* \"#utility.yul\":11273:11292   */\n      and\n        /* \"#utility.yul\":11266:11271   */\n      dup5\n        /* \"#utility.yul\":11263:11293   */\n      or\n        /* \"#utility.yul\":11253:11293   */\n      swap3\n      pop\n        /* \"#utility.yul\":10982:11299   */\n      pop\n      pop\n        /* \"#utility.yul\":10906:11299   */\n      swap4\n      swap3\n      pop\n      pop\n      pop\n      jump\t// out\n        /* \"#utility.yul\":11305:11365   */\n    tag_149:\n        /* \"#utility.yul\":11333:11336   */\n      0x00\n        /* \"#utility.yul\":11354:11359   */\n      dup2\n        /* \"#utility.yul\":11347:11359   */\n      swap1\n      pop\n        /* \"#utility.yul\":11305:11365   */\n      swap2\n      swap1\n      pop\n      jump\t// out\n        /* \"#utility.yul\":11371:11513   */\n    tag_150:\n        /* \"#utility.yul\":11421:11430   */\n      0x00\n        /* \"#utility.yul\":11454:11507   */\n      tag_274\n        /* \"#utility.yul\":11472:11506   */\n      tag_275\n        /* \"#utility.yul\":11481:11505   */\n      tag_276\n        /* \"#utility.yul\":11499:11504   */\n      dup5\n        /* \"#utility.yul\":11481:11505   */\n      tag_131\n      jump\t// in\n    tag_276:\n        /* \"#utility.yul\":11472:11506   */\n      tag_149\n      jump\t// in\n    tag_275:\n        /* \"#utility.yul\":11454:11507   */\n      tag_131\n      jump\t// in\n    tag_274:\n        /* \"#utility.yul\":11441:11507   */\n      swap1\n      pop\n        /* \"#utility.yul\":11371:11513   */\n      swap2\n      swap1\n      pop\n      jump\t// out\n        /* \"#utility.yul\":11519:11594   */\n    tag_151:\n        /* \"#utility.yul\":11562:11565   */\n      0x00\n        /* \"#utility.yul\":11583:11588   */\n      dup2\n        /* \"#utility.yul\":11576:11588   */\n      swap1\n      pop\n        /* \"#utility.yul\":11519:11594   */\n      swap2\n      swap1\n      pop\n      jump\t// out\n        /* \"#utility.yul\":11600:11869   */\n    tag_152:\n        /* \"#utility.yul\":11710:11749   */\n      tag_279\n        /* \"#utility.yul\":11741:11748   */\n      dup4\n        /* \"#utility.yul\":11710:11749   */\n      tag_150\n      jump\t// in\n    tag_279:\n        /* \"#utility.yul\":11771:11862   */\n      tag_280\n        /* \"#utility.yul\":11820:11861   */\n      tag_281\n        /* \"#utility.yul\":11844:11860   */\n      dup3\n        /* \"#utility.yul\":11820:11861   */\n      tag_151\n      jump\t// in\n    tag_281:\n        /* \"#utility.yul\":11812:11818   */\n      dup5\n        /* \"#utility.yul\":11805:11809   */\n      dup5\n        /* \"#utility.yul\":11799:11810   */\n      sload\n        /* \"#utility.yul\":11771:11862   */\n      tag_148\n      jump\t// in\n    tag_280:\n        /* \"#utility.yul\":11765:11769   */\n      dup3\n        /* \"#utility.yul\":11758:11863   */\n      sstore\n        /* \"#utility.yul\":11676:11869   */\n      pop\n        /* \"#utility.yul\":11600:11869   */\n      pop\n      pop\n      pop\n      jump\t// out\n        /* \"#utility.yul\":11875:11948   */\n    tag_153:\n        /* \"#utility.yul\":11920:11923   */\n      0x00\n        /* \"#utility.yul\":11875:11948   */\n      swap1\n      jump\t// out\n        /* \"#utility.yul\":11954:12143   */\n    tag_154:\n        /* \"#utility.yul\":12031:12063   */\n      tag_284\n      tag_153\n      jump\t// in\n    tag_284:\n        /* \"#utility.yul\":12072:12137   */\n      tag_285\n        /* \"#utility.yul\":12130:12136   */\n      dup2\n        /* \"#utility.yul\":12122:12128   */\n      dup5\n        /* \"#utility.yul\":12116:12120   */\n      dup5\n        /* \"#utility.yul\":12072:12137   */\n      tag_152\n      jump\t// in\n    tag_285:\n        /* \"#utility.yul\":12007:12143   */\n      pop\n        /* \"#utility.yul\":11954:12143   */\n      pop\n      pop\n      jump\t// out\n        /* \"#utility.yul\":12149:12335   */\n    tag_155:\n        /* \"#utility.yul\":12209:12329   */\n    tag_287:\n        /* \"#utility.yul\":12226:12229   */\n      dup2\n        /* \"#utility.yul\":12219:12224   */\n      dup2\n        /* \"#utility.yul\":12216:12230   */\n      lt\n        /* \"#utility.yul\":12209:12329   */\n      iszero\n      tag_289\n      jumpi\n        /* \"#utility.yul\":12280:12319   */\n      tag_290\n        /* \"#utility.yul\":12317:12318   */\n      0x00\n        /* \"#utility.yul\":12310:12315   */\n      dup3\n        /* \"#utility.yul\":12280:12319   */\n      tag_154\n      jump\t// in\n    tag_290:\n        /* \"#utility.yul\":12253:12254   */\n      0x01\n        /* \"#utility.yul\":12246:12251   */\n      dup2\n        /* \"#utility.yul\":12242:12255   */\n      add\n        /* \"#utility.yul\":12233:12255   */\n      swap1\n      pop\n        /* \"#utility.yul\":12209:12329   */\n      jump(tag_287)\n    tag_289:\n        /* \"#utility.yul\":12149:12335   */\n      pop\n      pop\n      jump\t// out\n        /* \"#utility.yul\":12341:12884   */\n    tag_156:\n        /* \"#utility.yul\":12442:12444   */\n      0x1f\n        /* \"#utility.yul\":12437:12440   */\n      dup3\n        /* \"#utility.yul\":12434:12445   */\n      gt\n        /* \"#utility.yul\":12431:12877   */\n      iszero\n      tag_292\n      jumpi\n        /* \"#utility.yul\":12476:12514   */\n      tag_293\n        /* \"#utility.yul\":12508:12513   */\n      dup2\n        /* \"#utility.yul\":12476:12514   */\n      tag_145\n      jump\t// in\n    tag_293:\n        /* \"#utility.yul\":12560:12589   */\n      tag_294\n        /* \"#utility.yul\":12578:12588   */\n      dup5\n        /* \"#utility.yul\":12560:12589   */\n      tag_146\n      jump\t// in\n    tag_294:\n        /* \"#utility.yul\":12550:12558   */\n      dup2\n        /* \"#utility.yul\":12546:12590   */\n      add\n        /* \"#utility.yul\":12743:12745   */\n      0x20\n        /* \"#utility.yul\":12731:12741   */\n      dup6\n        /* \"#utility.yul\":12728:12746   */\n      lt\n        /* \"#utility.yul\":12725:12774   */\n      iszero\n      tag_295\n      jumpi\n        /* \"#utility.yul\":12764:12772   */\n      dup2\n        /* \"#utility.yul\":12749:12772   */\n      swap1\n      pop\n        /* \"#utility.yul\":12725:12774   */\n    tag_295:\n        /* \"#utility.yul\":12787:12867   */\n      tag_296\n        /* \"#utility.yul\":12843:12865   */\n      tag_297\n        /* \"#utility.yul\":12861:12864   */\n      dup6\n        /* \"#utility.yul\":12843:12865   */\n      tag_146\n      jump\t// in\n    tag_297:\n        /* \"#utility.yul\":12833:12841   */\n      dup4\n        /* \"#utility.yul\":12829:12866   */\n      add\n        /* \"#utility.yul\":12816:12827   */\n      dup3\n        /* \"#utility.yul\":12787:12867   */\n      tag_155\n      jump\t// in\n    tag_296:\n        /* \"#utility.yul\":12446:12877   */\n      pop\n      pop\n        /* \"#utility.yul\":12431:12877   */\n    tag_292:\n        /* \"#utility.yul\":12341:12884   */\n      pop\n      pop\n      pop\n      jump\t// out\n        /* \"#utility.yul\":12890:13007   */\n    tag_157:\n        /* \"#utility.yul\":12944:12952   */\n      0x00\n        /* \"#utility.yul\":12994:12999   */\n      dup3\n        /* \"#utility.yul\":12988:12992   */\n      dup3\n        /* \"#utility.yul\":12984:13000   */\n      shr\n        /* \"#utility.yul\":12963:13000   */\n      swap1\n      pop\n        /* \"#utility.yul\":12890:13007   */\n      swap3\n      swap2\n      pop\n      pop\n      jump\t// out\n        /* \"#utility.yul\":13013:13182   */\n    tag_158:\n        /* \"#utility.yul\":13057:13063   */\n      0x00\n        /* \"#utility.yul\":13090:13141   */\n      tag_300\n        /* \"#utility.yul\":13138:13139   */\n      0x00\n        /* \"#utility.yul\":13134:13140   */\n      not\n        /* \"#utility.yul\":13126:13131   */\n      dup5\n        /* \"#utility.yul\":13123:13124   */\n      0x08\n        /* \"#utility.yul\":13119:13132   */\n      mul\n        /* \"#utility.yul\":13090:13141   */\n      tag_157\n      jump\t// in\n    tag_300:\n        /* \"#utility.yul\":13086:13142   */\n      not\n        /* \"#utility.yul\":13171:13175   */\n      dup1\n        /* \"#utility.yul\":13165:13169   */\n      dup4\n        /* \"#utility.yul\":13161:13176   */\n      and\n        /* \"#utility.yul\":13151:13176   */\n      swap2\n      pop\n        /* \"#utility.yul\":13064:13182   */\n      pop\n        /* \"#utility.yul\":13013:13182   */\n      swap3\n      swap2\n      pop\n      pop\n      jump\t// out\n        /* \"#utility.yul\":13187:13482   */\n    tag_159:\n        /* \"#utility.yul\":13263:13267   */\n      0x00\n        /* \"#utility.yul\":13409:13438   */\n      tag_302\n        /* \"#utility.yul\":13434:13437   */\n      dup4\n        /* \"#utility.yul\":13428:13432   */\n      dup4\n        /* \"#utility.yul\":13409:13438   */\n      tag_158\n      jump\t// in\n    tag_302:\n        /* \"#utility.yul\":13401:13438   */\n      swap2\n      pop\n        /* \"#utility.yul\":13471:13474   */\n      dup3\n        /* \"#utility.yul\":13468:13469   */\n      0x02\n        /* \"#utility.yul\":13464:13475   */\n      mul\n        /* \"#utility.yul\":13458:13462   */\n      dup3\n        /* \"#utility.yul\":13455:13476   */\n      or\n        /* \"#utility.yul\":13447:13476   */\n      swap1\n      pop\n        /* \"#utility.yul\":13187:13482   */\n      swap3\n      swap2\n      pop\n      pop\n      jump\t// out\n        /* \"#utility.yul\":13487:14882   */\n    tag_61:\n        /* \"#utility.yul\":13604:13641   */\n      tag_304\n        /* \"#utility.yul\":13637:13640   */\n      dup3\n        /* \"#utility.yul\":13604:13641   */\n      tag_127\n      jump\t// in\n    tag_304:\n        /* \"#utility.yul\":13706:13724   */\n      0xffffffffffffffff\n        /* \"#utility.yul\":13698:13704   */\n      dup2\n        /* \"#utility.yul\":13695:13725   */\n      gt\n        /* \"#utility.yul\":13692:13748   */\n      iszero\n      tag_305\n      jumpi\n        /* \"#utility.yul\":13728:13746   */\n      tag_306\n      tag_120\n      jump\t// in\n    tag_306:\n        /* \"#utility.yul\":13692:13748   */\n    tag_305:\n        /* \"#utility.yul\":13772:13810   */\n      tag_307\n        /* \"#utility.yul\":13804:13808   */\n      dup3\n        /* \"#utility.yul\":13798:13809   */\n      sload\n        /* \"#utility.yul\":13772:13810   */\n      tag_34\n      jump\t// in\n    tag_307:\n        /* \"#utility.yul\":13857:13924   */\n      tag_308\n        /* \"#utility.yul\":13917:13923   */\n      dup3\n        /* \"#utility.yul\":13909:13915   */\n      dup3\n        /* \"#utility.yul\":13903:13907   */\n      dup6\n        /* \"#utility.yul\":13857:13924   */\n      tag_156\n      jump\t// in\n    tag_308:\n        /* \"#utility.yul\":13951:13952   */\n      0x00\n        /* \"#utility.yul\":13975:13979   */\n      0x20\n        /* \"#utility.yul\":13962:13979   */\n      swap1\n      pop\n        /* \"#utility.yul\":14007:14009   */\n      0x1f\n        /* \"#utility.yul\":13999:14005   */\n      dup4\n        /* \"#utility.yul\":13996:14010   */\n      gt\n        /* \"#utility.yul\":14024:14025   */\n      0x01\n        /* \"#utility.yul\":14019:14637   */\n      dup2\n      eq\n      tag_310\n      jumpi\n        /* \"#utility.yul\":14681:14682   */\n      0x00\n        /* \"#utility.yul\":14698:14704   */\n      dup5\n        /* \"#utility.yul\":14695:14772   */\n      iszero\n      tag_311\n      jumpi\n        /* \"#utility.yul\":14747:14756   */\n      dup3\n        /* \"#utility.yul\":14742:14745   */\n      dup8\n        /* \"#utility.yul\":14738:14757   */\n      add\n        /* \"#utility.yul\":14732:14758   */\n      mload\n        /* \"#utility.yul\":14723:14758   */\n      swap1\n      pop\n        /* \"#utility.yul\":14695:14772   */\n    tag_311:\n        /* \"#utility.yul\":14798:14865   */\n      tag_312\n        /* \"#utility.yul\":14858:14864   */\n      dup6\n        /* \"#utility.yul\":14851:14856   */\n      dup3\n        /* \"#utility.yul\":14798:14865   */\n      tag_159\n      jump\t// in\n    tag_312:\n        /* \"#utility.yul\":14792:14796   */\n      dup7\n        /* \"#utility.yul\":14785:14866   */\n      sstore\n        /* \"#utility.yul\":14654:14876   */\n      pop\n        /* \"#utility.yul\":13989:14876   */\n      jump(tag_309)\n        /* \"#utility.yul\":14019:14637   */\n    tag_310:\n        /* \"#utility.yul\":14071:14075   */\n      0x1f\n        /* \"#utility.yul\":14067:14076   */\n      not\n        /* \"#utility.yul\":14059:14065   */\n      dup5\n        /* \"#utility.yul\":14055:14077   */\n      and\n        /* \"#utility.yul\":14105:14142   */\n      tag_313\n        /* \"#utility.yul\":14137:14141   */\n      dup7\n        /* \"#utility.yul\":14105:14142   */\n      tag_145\n      jump\t// in\n    tag_313:\n        /* \"#utility.yul\":14164:14165   */\n      0x00\n        /* \"#utility.yul\":14178:14386   */\n    tag_314:\n        /* \"#utility.yul\":14192:14199   */\n      dup3\n        /* \"#utility.yul\":14189:14190   */\n      dup2\n        /* \"#utility.yul\":14186:14200   */\n      lt\n        /* \"#utility.yul\":14178:14386   */\n      iszero\n      tag_316\n      jumpi\n        /* \"#utility.yul\":14271:14280   */\n      dup5\n        /* \"#utility.yul\":14266:14269   */\n      dup10\n        /* \"#utility.yul\":14262:14281   */\n      add\n        /* \"#utility.yul\":14256:14282   */\n      mload\n        /* \"#utility.yul\":14248:14254   */\n      dup3\n        /* \"#utility.yul\":14241:14283   */\n      sstore\n        /* \"#utility.yul\":14322:14323   */\n      0x01\n        /* \"#utility.yul\":14314:14320   */\n      dup3\n        /* \"#utility.yul\":14310:14324   */\n      add\n        /* \"#utility.yul\":14300:14324   */\n      swap2\n      pop\n        /* \"#utility.yul\":14369:14371   */\n      0x20\n        /* \"#utility.yul\":14358:14367   */\n      dup6\n        /* \"#utility.yul\":14354:14372   */\n      add\n        /* \"#utility.yul\":14341:14372   */\n      swap5\n      pop\n        /* \"#utility.yul\":14215:14219   */\n      0x20\n        /* \"#utility.yul\":14212:14213   */\n      dup2\n        /* \"#utility.yul\":14208:14220   */\n      add\n        /* \"#utility.yul\":14203:14220   */\n      swap1\n      pop\n        /* \"#utility.yul\":14178:14386   */\n      jump(tag_314)\n    tag_316:\n        /* \"#utility.yul\":14414:14420   */\n      dup7\n        /* \"#utility.yul\":14405:14412   */\n      dup4\n        /* \"#utility.yul\":14402:14421   */\n      lt\n        /* \"#utility.yul\":14399:14578   */\n      iszero\n      tag_317\n      jumpi\n        /* \"#utility.yul\":14472:14481   */\n      dup5\n        /* \"#utility.yul\":14467:14470   */\n      dup10\n        /* \"#utility.yul\":14463:14482   */\n      add\n        /* \"#utility.yul\":14457:14483   */\n      mload\n        /* \"#utility.yul\":14515:14563   */\n      tag_318\n        /* \"#utility.yul\":14557:14561   */\n      0x1f\n        /* \"#utility.yul\":14549:14555   */\n      dup10\n        /* \"#utility.yul\":14545:14562   */\n      and\n        /* \"#utility.yul\":14534:14543   */\n      dup3\n        /* \"#utility.yul\":14515:14563   */\n      tag_158\n      jump\t// in\n    tag_318:\n        /* \"#utility.yul\":14507:14513   */\n      dup4\n        /* \"#utility.yul\":14500:14564   */\n      sstore\n        /* \"#utility.yul\":14422:14578   */\n      pop\n        /* \"#utility.yul\":14399:14578   */\n    tag_317:\n        /* \"#utility.yul\":14624:14625   */\n      0x01\n        /* \"#utility.yul\":14620:14621   */\n      0x02\n        /* \"#utility.yul\":14612:14618   */\n      dup9\n        /* \"#utility.yul\":14608:14622   */\n      mul\n        /* \"#utility.yul\":14604:14626   */\n      add\n        /* \"#utility.yul\":14598:14602   */\n      dup9\n        /* \"#utility.yul\":14591:14627   */\n      sstore\n        /* \"#utility.yul\":14026:14637   */\n      pop\n      pop\n      pop\n        /* \"#utility.yul\":13989:14876   */\n    tag_309:\n      pop\n        /* \"#utility.yul\":13579:14882   */\n      pop\n      pop\n      pop\n        /* \"#utility.yul\":13487:14882   */\n      pop\n      pop\n      jump\t// out\n        /* \"#utility.yul\":14888:15059   */\n    tag_160:\n        /* \"#utility.yul\":15028:15051   */\n      0x42756b7520746964616b20646974656d756b616e2e0000000000000000000000\n        /* \"#utility.yul\":15024:15025   */\n      0x00\n        /* \"#utility.yul\":15016:15022   */\n      dup3\n        /* \"#utility.yul\":15012:15026   */\n      add\n        /* \"#utility.yul\":15005:15052   */\n      mstore\n        /* \"#utility.yul\":14888:15059   */\n      pop\n      jump\t// out\n        /* \"#utility.yul\":15065:15431   */\n    tag_161:\n        /* \"#utility.yul\":15207:15210   */\n      0x00\n        /* \"#utility.yul\":15228:15295   */\n      tag_321\n        /* \"#utility.yul\":15292:15294   */\n      0x15\n        /* \"#utility.yul\":15287:15290   */\n      dup4\n        /* \"#utility.yul\":15228:15295   */\n      tag_128\n      jump\t// in\n    tag_321:\n        /* \"#utility.yul\":15221:15295   */\n      swap2\n      pop\n        /* \"#utility.yul\":15304:15397   */\n      tag_322\n        /* \"#utility.yul\":15393:15396   */\n      dup3\n        /* \"#utility.yul\":15304:15397   */\n      tag_160\n      jump\t// in\n    tag_322:\n        /* \"#utility.yul\":15422:15424   */\n      0x20\n        /* \"#utility.yul\":15417:15420   */\n      dup3\n        /* \"#utility.yul\":15413:15425   */\n      add\n        /* \"#utility.yul\":15406:15425   */\n      swap1\n      pop\n        /* \"#utility.yul\":15065:15431   */\n      swap2\n      swap1\n      pop\n      jump\t// out\n        /* \"#utility.yul\":15437:15856   */\n    tag_71:\n        /* \"#utility.yul\":15603:15607   */\n      0x00\n        /* \"#utility.yul\":15641:15643   */\n      0x20\n        /* \"#utility.yul\":15630:15639   */\n      dup3\n        /* \"#utility.yul\":15626:15644   */\n      add\n        /* \"#utility.yul\":15618:15644   */\n      swap1\n      pop\n        /* \"#utility.yul\":15690:15699   */\n      dup2\n        /* \"#utility.yul\":15684:15688   */\n      dup2\n        /* \"#utility.yul\":15680:15700   */\n      sub\n        /* \"#utility.yul\":15676:15677   */\n      0x00\n        /* \"#utility.yul\":15665:15674   */\n      dup4\n        /* \"#utility.yul\":15661:15678   */\n      add\n        /* \"#utility.yul\":15654:15701   */\n      mstore\n        /* \"#utility.yul\":15718:15849   */\n      tag_324\n        /* \"#utility.yul\":15844:15848   */\n      dup2\n        /* \"#utility.yul\":15718:15849   */\n      tag_161\n      jump\t// in\n    tag_324:\n        /* \"#utility.yul\":15710:15849   */\n      swap1\n      pop\n        /* \"#utility.yul\":15437:15856   */\n      swap2\n      swap1\n      pop\n      jump\t// out\n\n    auxdata: 0xa2646970667358221220f934db92075abf701632e8540436826ed19597b71e5b527d0df1986479bca20a64736f6c63430008140033\n}\n",
				"bytecode": {
					"linkReferences": {},
					"object": "608060405234801561000f575f80fd5b503360015f6101000a81548173ffffffffffffffffffffffffffffffffffffffff021916908373ffffffffffffffffffffffffffffffffffffffff16021790555061129b8061005d5f395ff3fe608060405234801561000f575f80fd5b5060043610610060575f3560e01c80635aeecb93146100645780636631d4f01461009757806385af0a9b146100b357806389ef65d4146100cf57806396de0fc714610102578063f851a4401461011e575b5f80fd5b61007e60048036038101906100799190610b83565b61013c565b60405161008e9493929190610c5c565b60405180910390f35b6100b160048036038101906100ac9190610cde565b610311565b005b6100cd60048036038101906100c89190610cde565b610498565b005b6100e960048036038101906100e49190610b83565b61061f565b6040516100f99493929190610c5c565b60405180910390f35b61011c60048036038101906101179190610b83565b610872565b005b6101266109b9565b6040516101339190610dd5565b60405180910390f35b5f818051602081018201805184825260208301602085012081835280955050505050505f91509050805f01805461017290610e1b565b80601f016020809104026020016040519081016040528092919081815260200182805461019e90610e1b565b80156101e95780601f106101c0576101008083540402835291602001916101e9565b820191905f5260205f20905b8154815290600101906020018083116101cc57829003601f168201915b5050505050908060010180546101fe90610e1b565b80601f016020809104026020016040519081016040528092919081815260200182805461022a90610e1b565b80156102755780601f1061024c57610100808354040283529160200191610275565b820191905f5260205f20905b81548152906001019060200180831161025857829003601f168201915b50505050509080600201549080600301805461029090610e1b565b80601f01602080910402602001604051908101604052809291908181526020018280546102bc90610e1b565b80156103075780601f106102de57610100808354040283529160200191610307565b820191905f5260205f20905b8154815290600101906020018083116102ea57829003601f168201915b5050505050905084565b60015f9054906101000a900473ffffffffffffffffffffffffffffffffffffffff1673ffffffffffffffffffffffffffffffffffffffff163373ffffffffffffffffffffffffffffffffffffffff16146103a0576040517f08c379a000000000000000000000000000000000000000000000000000000000815260040161039790610ebb565b60405180910390fd5b5f80856040516103b09190610f13565b90815260200160405180910390206002015414610402576040517f08c379a00000000000000000000000000000000000000000000000000000000081526004016103f990610f73565b60405180910390fd5b5f6040518060800160405280868152602001858152602001848152602001838152509050805f866040516104369190610f13565b90815260200160405180910390205f820151815f019081610457919061112e565b50602082015181600101908161046d919061112e565b5060408201518160020155606082015181600301908161048d919061112e565b509050505050505050565b60015f9054906101000a900473ffffffffffffffffffffffffffffffffffffffff1673ffffffffffffffffffffffffffffffffffffffff163373ffffffffffffffffffffffffffffffffffffffff1614610527576040517f08c379a000000000000000000000000000000000000000000000000000000000815260040161051e90610ebb565b60405180910390fd5b5f80856040516105379190610f13565b90815260200160405180910390206002015403610589576040517f08c379a000000000000000000000000000000000000000000000000000000000815260040161058090611247565b60405180910390fd5b5f6040518060800160405280868152602001858152602001848152602001838152509050805f866040516105bd9190610f13565b90815260200160405180910390205f820151815f0190816105de919061112e565b5060208201518160010190816105f4919061112e565b50604082015181600201556060820151816003019081610614919061112e565b509050505050505050565b6060805f60605f80866040516106359190610f13565b90815260200160405180910390206040518060800160405290815f8201805461065d90610e1b565b80601f016020809104026020016040519081016040528092919081815260200182805461068990610e1b565b80156106d45780601f106106ab576101008083540402835291602001916106d4565b820191905f5260205f20905b8154815290600101906020018083116106b757829003601f168201915b505050505081526020016001820180546106ed90610e1b565b80601f016020809104026020016040519081016040528092919081815260200182805461071990610e1b565b80156107645780601f1061073b57610100808354040283529160200191610764565b820191905f5260205f20905b81548152906001019060200180831161074757829003601f168201915b505050505081526020016002820154815260200160038201805461078790610e1b565b80601f01602080910402602001604051908101604052809291908181526020018280546107b390610e1b565b80156107fe5780601f106107d5576101008083540402835291602001916107fe565b820191905f5260205f20905b8154815290600101906020018083116107e157829003601f168201915b50505050508152505090505f81604001510361084f576040517f08c379a000000000000000000000000000000000000000000000000000000000815260040161084690611247565b60405180910390fd5b805f01518160200151826040015183606001519450945094509450509193509193565b60015f9054906101000a900473ffffffffffffffffffffffffffffffffffffffff1673ffffffffffffffffffffffffffffffffffffffff163373ffffffffffffffffffffffffffffffffffffffff1614610901576040517f08c379a00000000000000000000000000000000000000000000000000000000081526004016108f890610ebb565b60405180910390fd5b5f80826040516109119190610f13565b90815260200160405180910390206002015403610963576040517f08c379a000000000000000000000000000000000000000000000000000000000815260040161095a90611247565b60405180910390fd5b5f816040516109729190610f13565b90815260200160405180910390205f8082015f61098f91906109de565b600182015f61099e91906109de565b600282015f9055600382015f6109b491906109de565b505050565b60015f9054906101000a900473ffffffffffffffffffffffffffffffffffffffff1681565b5080546109ea90610e1b565b5f825580601f106109fb5750610a18565b601f0160209004905f5260205f2090810190610a179190610a1b565b5b50565b5b80821115610a32575f815f905550600101610a1c565b5090565b5f604051905090565b5f80fd5b5f80fd5b5f80fd5b5f80fd5b5f601f19601f8301169050919050565b7f4e487b71000000000000000000000000000000000000000000000000000000005f52604160045260245ffd5b610a9582610a4f565b810181811067ffffffffffffffff82111715610ab457610ab3610a5f565b5b80604052505050565b5f610ac6610a36565b9050610ad28282610a8c565b919050565b5f67ffffffffffffffff821115610af157610af0610a5f565b5b610afa82610a4f565b9050602081019050919050565b828183375f83830152505050565b5f610b27610b2284610ad7565b610abd565b905082815260208101848484011115610b4357610b42610a4b565b5b610b4e848285610b07565b509392505050565b5f82601f830112610b6a57610b69610a47565b5b8135610b7a848260208601610b15565b91505092915050565b5f60208284031215610b9857610b97610a3f565b5b5f82013567ffffffffffffffff811115610bb557610bb4610a43565b5b610bc184828501610b56565b91505092915050565b5f81519050919050565b5f82825260208201905092915050565b5f5b83811015610c01578082015181840152602081019050610be6565b5f8484015250505050565b5f610c1682610bca565b610c208185610bd4565b9350610c30818560208601610be4565b610c3981610a4f565b840191505092915050565b5f819050919050565b610c5681610c44565b82525050565b5f6080820190508181035f830152610c748187610c0c565b90508181036020830152610c888186610c0c565b9050610c976040830185610c4d565b8181036060830152610ca98184610c0c565b905095945050505050565b610cbd81610c44565b8114610cc7575f80fd5b50565b5f81359050610cd881610cb4565b92915050565b5f805f8060808587031215610cf657610cf5610a3f565b5b5f85013567ffffffffffffffff811115610d1357610d12610a43565b5b610d1f87828801610b56565b945050602085013567ffffffffffffffff811115610d4057610d3f610a43565b5b610d4c87828801610b56565b9350506040610d5d87828801610cca565b925050606085013567ffffffffffffffff811115610d7e57610d7d610a43565b5b610d8a87828801610b56565b91505092959194509250565b5f73ffffffffffffffffffffffffffffffffffffffff82169050919050565b5f610dbf82610d96565b9050919050565b610dcf81610db5565b82525050565b5f602082019050610de85f830184610dc6565b92915050565b7f4e487b71000000000000000000000000000000000000000000000000000000005f52602260045260245ffd5b5f6002820490506001821680610e3257607f821691505b602082108103610e4557610e44610dee565b5b50919050565b7f416b736573206469746f6c616b2e2048616e79612061646d696e2079616e67205f8201527f6461706174206d656e67616b7365732e00000000000000000000000000000000602082015250565b5f610ea5603083610bd4565b9150610eb082610e4b565b604082019050919050565b5f6020820190508181035f830152610ed281610e99565b9050919050565b5f81905092915050565b5f610eed82610bca565b610ef78185610ed9565b9350610f07818560208601610be4565b80840191505092915050565b5f610f1e8284610ee3565b915081905092915050565b7f4953424e20737564616820646967756e616b616e2e00000000000000000000005f82015250565b5f610f5d601583610bd4565b9150610f6882610f29565b602082019050919050565b5f6020820190508181035f830152610f8a81610f51565b9050919050565b5f819050815f5260205f209050919050565b5f6020601f8301049050919050565b5f82821b905092915050565b5f60088302610fed7fffffffffffffffffffffffffffffffffffffffffffffffffffffffffffffffff82610fb2565b610ff78683610fb2565b95508019841693508086168417925050509392505050565b5f819050919050565b5f61103261102d61102884610c44565b61100f565b610c44565b9050919050565b5f819050919050565b61104b83611018565b61105f61105782611039565b848454610fbe565b825550505050565b5f90565b611073611067565b61107e818484611042565b505050565b5b818110156110a1576110965f8261106b565b600181019050611084565b5050565b601f8211156110e6576110b781610f91565b6110c084610fa3565b810160208510156110cf578190505b6110e36110db85610fa3565b830182611083565b50505b505050565b5f82821c905092915050565b5f6111065f19846008026110eb565b1980831691505092915050565b5f61111e83836110f7565b9150826002028217905092915050565b61113782610bca565b67ffffffffffffffff8111156111505761114f610a5f565b5b61115a8254610e1b565b6111658282856110a5565b5f60209050601f831160018114611196575f8415611184578287015190505b61118e8582611113565b8655506111f5565b601f1984166111a486610f91565b5f5b828110156111cb578489015182556001820191506020850194506020810190506111a6565b868310156111e857848901516111e4601f8916826110f7565b8355505b6001600288020188555050505b505050505050565b7f42756b7520746964616b20646974656d756b616e2e00000000000000000000005f82015250565b5f611231601583610bd4565b915061123c826111fd565b602082019050919050565b5f6020820190508181035f83015261125e81611225565b905091905056fea2646970667358221220f934db92075abf701632e8540436826ed19597b71e5b527d0df1986479bca20a64736f6c63430008140033",
					"opcodes": "PUSH1 0x80 PUSH1 0x40 MSTORE CALLVALUE DUP1 ISZERO PUSH2 0xF JUMPI PUSH0 DUP1 REVERT JUMPDEST POP CALLER PUSH1 0x1 PUSH0 PUSH2 0x100 EXP DUP2 SLOAD DUP2 PUSH20 0xFFFFFFFFFFFFFFFFFFFFFFFFFFFFFFFFFFFFFFFF MUL NOT AND SWAP1 DUP4 PUSH20 0xFFFFFFFFFFFFFFFFFFFFFFFFFFFFFFFFFFFFFFFF AND MUL OR SWAP1 SSTORE POP PUSH2 0x129B DUP1 PUSH2 0x5D PUSH0 CODECOPY PUSH0 RETURN INVALID PUSH1 0x80 PUSH1 0x40 MSTORE CALLVALUE DUP1 ISZERO PUSH2 0xF JUMPI PUSH0 DUP1 REVERT JUMPDEST POP PUSH1 0x4 CALLDATASIZE LT PUSH2 0x60 JUMPI PUSH0 CALLDATALOAD PUSH1 0xE0 SHR DUP1 PUSH4 0x5AEECB93 EQ PUSH2 0x64 JUMPI DUP1 PUSH4 0x6631D4F0 EQ PUSH2 0x97 JUMPI DUP1 PUSH4 0x85AF0A9B EQ PUSH2 0xB3 JUMPI DUP1 PUSH4 0x89EF65D4 EQ PUSH2 0xCF JUMPI DUP1 PUSH4 0x96DE0FC7 EQ PUSH2 0x102 JUMPI DUP1 PUSH4 0xF851A440 EQ PUSH2 0x11E JUMPI JUMPDEST PUSH0 DUP1 REVERT JUMPDEST PUSH2 0x7E PUSH1 0x4 DUP1 CALLDATASIZE SUB DUP2 ADD SWAP1 PUSH2 0x79 SWAP2 SWAP1 PUSH2 0xB83 JUMP JUMPDEST PUSH2 0x13C JUMP JUMPDEST PUSH1 0x40 MLOAD PUSH2 0x8E SWAP5 SWAP4 SWAP3 SWAP2 SWAP1 PUSH2 0xC5C JUMP JUMPDEST PUSH1 0x40 MLOAD DUP1 SWAP2 SUB SWAP1 RETURN JUMPDEST PUSH2 0xB1 PUSH1 0x4 DUP1 CALLDATASIZE SUB DUP2 ADD SWAP1 PUSH2 0xAC SWAP2 SWAP1 PUSH2 0xCDE JUMP JUMPDEST PUSH2 0x311 JUMP JUMPDEST STOP JUMPDEST PUSH2 0xCD PUSH1 0x4 DUP1 CALLDATASIZE SUB DUP2 ADD SWAP1 PUSH2 0xC8 SWAP2 SWAP1 PUSH2 0xCDE JUMP JUMPDEST PUSH2 0x498 JUMP JUMPDEST STOP JUMPDEST PUSH2 0xE9 PUSH1 0x4 DUP1 CALLDATASIZE SUB DUP2 ADD SWAP1 PUSH2 0xE4 SWAP2 SWAP1 PUSH2 0xB83 JUMP JUMPDEST PUSH2 0x61F JUMP JUMPDEST PUSH1 0x40 MLOAD PUSH2 0xF9 SWAP5 SWAP4 SWAP3 SWAP2 SWAP1 PUSH2 0xC5C JUMP JUMPDEST PUSH1 0x40 MLOAD DUP1 SWAP2 SUB SWAP1 RETURN JUMPDEST PUSH2 0x11C PUSH1 0x4 DUP1 CALLDATASIZE SUB DUP2 ADD SWAP1 PUSH2 0x117 SWAP2 SWAP1 PUSH2 0xB83 JUMP JUMPDEST PUSH2 0x872 JUMP JUMPDEST STOP JUMPDEST PUSH2 0x126 PUSH2 0x9B9 JUMP JUMPDEST PUSH1 0x40 MLOAD PUSH2 0x133 SWAP2 SWAP1 PUSH2 0xDD5 JUMP JUMPDEST PUSH1 0x40 MLOAD DUP1 SWAP2 SUB SWAP1 RETURN JUMPDEST PUSH0 DUP2 DUP1 MLOAD PUSH1 0x20 DUP2 ADD DUP3 ADD DUP1 MLOAD DUP5 DUP3 MSTORE PUSH1 0x20 DUP4 ADD PUSH1 0x20 DUP6 ADD KECCAK256 DUP2 DUP4 MSTORE DUP1 SWAP6 POP POP POP POP POP POP PUSH0 SWAP2 POP SWAP1 POP DUP1 PUSH0 ADD DUP1 SLOAD PUSH2 0x172 SWAP1 PUSH2 0xE1B JUMP JUMPDEST DUP1 PUSH1 0x1F ADD PUSH1 0x20 DUP1 SWAP2 DIV MUL PUSH1 0x20 ADD PUSH1 0x40 MLOAD SWAP1 DUP2 ADD PUSH1 0x40 MSTORE DUP1 SWAP3 SWAP2 SWAP1 DUP2 DUP2 MSTORE PUSH1 0x20 ADD DUP3 DUP1 SLOAD PUSH2 0x19E SWAP1 PUSH2 0xE1B JUMP JUMPDEST DUP1 ISZERO PUSH2 0x1E9 JUMPI DUP1 PUSH1 0x1F LT PUSH2 0x1C0 JUMPI PUSH2 0x100 DUP1 DUP4 SLOAD DIV MUL DUP4 MSTORE SWAP2 PUSH1 0x20 ADD SWAP2 PUSH2 0x1E9 JUMP JUMPDEST DUP3 ADD SWAP2 SWAP1 PUSH0 MSTORE PUSH1 0x20 PUSH0 KECCAK256 SWAP1 JUMPDEST DUP2 SLOAD DUP2 MSTORE SWAP1 PUSH1 0x1 ADD SWAP1 PUSH1 0x20 ADD DUP1 DUP4 GT PUSH2 0x1CC JUMPI DUP3 SWAP1 SUB PUSH1 0x1F AND DUP3 ADD SWAP2 JUMPDEST POP POP POP POP POP SWAP1 DUP1 PUSH1 0x1 ADD DUP1 SLOAD PUSH2 0x1FE SWAP1 PUSH2 0xE1B JUMP JUMPDEST DUP1 PUSH1 0x1F ADD PUSH1 0x20 DUP1 SWAP2 DIV MUL PUSH1 0x20 ADD PUSH1 0x40 MLOAD SWAP1 DUP2 ADD PUSH1 0x40 MSTORE DUP1 SWAP3 SWAP2 SWAP1 DUP2 DUP2 MSTORE PUSH1 0x20 ADD DUP3 DUP1 SLOAD PUSH2 0x22A SWAP1 PUSH2 0xE1B JUMP JUMPDEST DUP1 ISZERO PUSH2 0x275 JUMPI DUP1 PUSH1 0x1F LT PUSH2 0x24C JUMPI PUSH2 0x100 DUP1 DUP4 SLOAD DIV MUL DUP4 MSTORE SWAP2 PUSH1 0x20 ADD SWAP2 PUSH2 0x275 JUMP JUMPDEST DUP3 ADD SWAP2 SWAP1 PUSH0 MSTORE PUSH1 0x20 PUSH0 KECCAK256 SWAP1 JUMPDEST DUP2 SLOAD DUP2 MSTORE SWAP1 PUSH1 0x1 ADD SWAP1 PUSH1 0x20 ADD DUP1 DUP4 GT PUSH2 0x258 JUMPI DUP3 SWAP1 SUB PUSH1 0x1F AND DUP3 ADD SWAP2 JUMPDEST POP POP POP POP POP SWAP1 DUP1 PUSH1 0x2 ADD SLOAD SWAP1 DUP1 PUSH1 0x3 ADD DUP1 SLOAD PUSH2 0x290 SWAP1 PUSH2 0xE1B JUMP JUMPDEST DUP1 PUSH1 0x1F ADD PUSH1 0x20 DUP1 SWAP2 DIV MUL PUSH1 0x20 ADD PUSH1 0x40 MLOAD SWAP1 DUP2 ADD PUSH1 0x40 MSTORE DUP1 SWAP3 SWAP2 SWAP1 DUP2 DUP2 MSTORE PUSH1 0x20 ADD DUP3 DUP1 SLOAD PUSH2 0x2BC SWAP1 PUSH2 0xE1B JUMP JUMPDEST DUP1 ISZERO PUSH2 0x307 JUMPI DUP1 PUSH1 0x1F LT PUSH2 0x2DE JUMPI PUSH2 0x100 DUP1 DUP4 SLOAD DIV MUL DUP4 MSTORE SWAP2 PUSH1 0x20 ADD SWAP2 PUSH2 0x307 JUMP JUMPDEST DUP3 ADD SWAP2 SWAP1 PUSH0 MSTORE PUSH1 0x20 PUSH0 KECCAK256 SWAP1 JUMPDEST DUP2 SLOAD DUP2 MSTORE SWAP1 PUSH1 0x1 ADD SWAP1 PUSH1 0x20 ADD DUP1 DUP4 GT PUSH2 0x2EA JUMPI DUP3 SWAP1 SUB PUSH1 0x1F AND DUP3 ADD SWAP2 JUMPDEST POP POP POP POP POP SWAP1 POP DUP5 JUMP JUMPDEST PUSH1 0x1 PUSH0 SWAP1 SLOAD SWAP1 PUSH2 0x100 EXP SWAP1 DIV PUSH20 0xFFFFFFFFFFFFFFFFFFFFFFFFFFFFFFFFFFFFFFFF AND PUSH20 0xFFFFFFFFFFFFFFFFFFFFFFFFFFFFFFFFFFFFFFFF AND CALLER PUSH20 0xFFFFFFFFFFFFFFFFFFFFFFFFFFFFFFFFFFFFFFFF AND EQ PUSH2 0x3A0 JUMPI PUSH1 0x40 MLOAD PUSH32 0x8C379A000000000000000000000000000000000000000000000000000000000 DUP2 MSTORE PUSH1 0x4 ADD PUSH2 0x397 SWAP1 PUSH2 0xEBB JUMP JUMPDEST PUSH1 0x40 MLOAD DUP1 SWAP2 SUB SWAP1 REVERT JUMPDEST PUSH0 DUP1 DUP6 PUSH1 0x40 MLOAD PUSH2 0x3B0 SWAP2 SWAP1 PUSH2 0xF13 JUMP JUMPDEST SWAP1 DUP2 MSTORE PUSH1 0x20 ADD PUSH1 0x40 MLOAD DUP1 SWAP2 SUB SWAP1 KECCAK256 PUSH1 0x2 ADD SLOAD EQ PUSH2 0x402 JUMPI PUSH1 0x40 MLOAD PUSH32 0x8C379A000000000000000000000000000000000000000000000000000000000 DUP2 MSTORE PUSH1 0x4 ADD PUSH2 0x3F9 SWAP1 PUSH2 0xF73 JUMP JUMPDEST PUSH1 0x40 MLOAD DUP1 SWAP2 SUB SWAP1 REVERT JUMPDEST PUSH0 PUSH1 0x40 MLOAD DUP1 PUSH1 0x80 ADD PUSH1 0x40 MSTORE DUP1 DUP7 DUP2 MSTORE PUSH1 0x20 ADD DUP6 DUP2 MSTORE PUSH1 0x20 ADD DUP5 DUP2 MSTORE PUSH1 0x20 ADD DUP4 DUP2 MSTORE POP SWAP1 POP DUP1 PUSH0 DUP7 PUSH1 0x40 MLOAD PUSH2 0x436 SWAP2 SWAP1 PUSH2 0xF13 JUMP JUMPDEST SWAP1 DUP2 MSTORE PUSH1 0x20 ADD PUSH1 0x40 MLOAD DUP1 SWAP2 SUB SWAP1 KECCAK256 PUSH0 DUP3 ADD MLOAD DUP2 PUSH0 ADD SWAP1 DUP2 PUSH2 0x457 SWAP2 SWAP1 PUSH2 0x112E JUMP JUMPDEST POP PUSH1 0x20 DUP3 ADD MLOAD DUP2 PUSH1 0x1 ADD SWAP1 DUP2 PUSH2 0x46D SWAP2 SWAP1 PUSH2 0x112E JUMP JUMPDEST POP PUSH1 0x40 DUP3 ADD MLOAD DUP2 PUSH1 0x2 ADD SSTORE PUSH1 0x60 DUP3 ADD MLOAD DUP2 PUSH1 0x3 ADD SWAP1 DUP2 PUSH2 0x48D SWAP2 SWAP1 PUSH2 0x112E JUMP JUMPDEST POP SWAP1 POP POP POP POP POP POP POP JUMP JUMPDEST PUSH1 0x1 PUSH0 SWAP1 SLOAD SWAP1 PUSH2 0x100 EXP SWAP1 DIV PUSH20 0xFFFFFFFFFFFFFFFFFFFFFFFFFFFFFFFFFFFFFFFF AND PUSH20 0xFFFFFFFFFFFFFFFFFFFFFFFFFFFFFFFFFFFFFFFF AND CALLER PUSH20 0xFFFFFFFFFFFFFFFFFFFFFFFFFFFFFFFFFFFFFFFF AND EQ PUSH2 0x527 JUMPI PUSH1 0x40 MLOAD PUSH32 0x8C379A000000000000000000000000000000000000000000000000000000000 DUP2 MSTORE PUSH1 0x4 ADD PUSH2 0x51E SWAP1 PUSH2 0xEBB JUMP JUMPDEST PUSH1 0x40 MLOAD DUP1 SWAP2 SUB SWAP1 REVERT JUMPDEST PUSH0 DUP1 DUP6 PUSH1 0x40 MLOAD PUSH2 0x537 SWAP2 SWAP1 PUSH2 0xF13 JUMP JUMPDEST SWAP1 DUP2 MSTORE PUSH1 0x20 ADD PUSH1 0x40 MLOAD DUP1 SWAP2 SUB SWAP1 KECCAK256 PUSH1 0x2 ADD SLOAD SUB PUSH2 0x589 JUMPI PUSH1 0x40 MLOAD PUSH32 0x8C379A000000000000000000000000000000000000000000000000000000000 DUP2 MSTORE PUSH1 0x4 ADD PUSH2 0x580 SWAP1 PUSH2 0x1247 JUMP JUMPDEST PUSH1 0x40 MLOAD DUP1 SWAP2 SUB SWAP1 REVERT JUMPDEST PUSH0 PUSH1 0x40 MLOAD DUP1 PUSH1 0x80 ADD PUSH1 0x40 MSTORE DUP1 DUP7 DUP2 MSTORE PUSH1 0x20 ADD DUP6 DUP2 MSTORE PUSH1 0x20 ADD DUP5 DUP2 MSTORE PUSH1 0x20 ADD DUP4 DUP2 MSTORE POP SWAP1 POP DUP1 PUSH0 DUP7 PUSH1 0x40 MLOAD PUSH2 0x5BD SWAP2 SWAP1 PUSH2 0xF13 JUMP JUMPDEST SWAP1 DUP2 MSTORE PUSH1 0x20 ADD PUSH1 0x40 MLOAD DUP1 SWAP2 SUB SWAP1 KECCAK256 PUSH0 DUP3 ADD MLOAD DUP2 PUSH0 ADD SWAP1 DUP2 PUSH2 0x5DE SWAP2 SWAP1 PUSH2 0x112E JUMP JUMPDEST POP PUSH1 0x20 DUP3 ADD MLOAD DUP2 PUSH1 0x1 ADD SWAP1 DUP2 PUSH2 0x5F4 SWAP2 SWAP1 PUSH2 0x112E JUMP JUMPDEST POP PUSH1 0x40 DUP3 ADD MLOAD DUP2 PUSH1 0x2 ADD SSTORE PUSH1 0x60 DUP3 ADD MLOAD DUP2 PUSH1 0x3 ADD SWAP1 DUP2 PUSH2 0x614 SWAP2 SWAP1 PUSH2 0x112E JUMP JUMPDEST POP SWAP1 POP POP POP POP POP POP POP JUMP JUMPDEST PUSH1 0x60 DUP1 PUSH0 PUSH1 0x60 PUSH0 DUP1 DUP7 PUSH1 0x40 MLOAD PUSH2 0x635 SWAP2 SWAP1 PUSH2 0xF13 JUMP JUMPDEST SWAP1 DUP2 MSTORE PUSH1 0x20 ADD PUSH1 0x40 MLOAD DUP1 SWAP2 SUB SWAP1 KECCAK256 PUSH1 0x40 MLOAD DUP1 PUSH1 0x80 ADD PUSH1 0x40 MSTORE SWAP1 DUP2 PUSH0 DUP3 ADD DUP1 SLOAD PUSH2 0x65D SWAP1 PUSH2 0xE1B JUMP JUMPDEST DUP1 PUSH1 0x1F ADD PUSH1 0x20 DUP1 SWAP2 DIV MUL PUSH1 0x20 ADD PUSH1 0x40 MLOAD SWAP1 DUP2 ADD PUSH1 0x40 MSTORE DUP1 SWAP3 SWAP2 SWAP1 DUP2 DUP2 MSTORE PUSH1 0x20 ADD DUP3 DUP1 SLOAD PUSH2 0x689 SWAP1 PUSH2 0xE1B JUMP JUMPDEST DUP1 ISZERO PUSH2 0x6D4 JUMPI DUP1 PUSH1 0x1F LT PUSH2 0x6AB JUMPI PUSH2 0x100 DUP1 DUP4 SLOAD DIV MUL DUP4 MSTORE SWAP2 PUSH1 0x20 ADD SWAP2 PUSH2 0x6D4 JUMP JUMPDEST DUP3 ADD SWAP2 SWAP1 PUSH0 MSTORE PUSH1 0x20 PUSH0 KECCAK256 SWAP1 JUMPDEST DUP2 SLOAD DUP2 MSTORE SWAP1 PUSH1 0x1 ADD SWAP1 PUSH1 0x20 ADD DUP1 DUP4 GT PUSH2 0x6B7 JUMPI DUP3 SWAP1 SUB PUSH1 0x1F AND DUP3 ADD SWAP2 JUMPDEST POP POP POP POP POP DUP2 MSTORE PUSH1 0x20 ADD PUSH1 0x1 DUP3 ADD DUP1 SLOAD PUSH2 0x6ED SWAP1 PUSH2 0xE1B JUMP JUMPDEST DUP1 PUSH1 0x1F ADD PUSH1 0x20 DUP1 SWAP2 DIV MUL PUSH1 0x20 ADD PUSH1 0x40 MLOAD SWAP1 DUP2 ADD PUSH1 0x40 MSTORE DUP1 SWAP3 SWAP2 SWAP1 DUP2 DUP2 MSTORE PUSH1 0x20 ADD DUP3 DUP1 SLOAD PUSH2 0x719 SWAP1 PUSH2 0xE1B JUMP JUMPDEST DUP1 ISZERO PUSH2 0x764 JUMPI DUP1 PUSH1 0x1F LT PUSH2 0x73B JUMPI PUSH2 0x100 DUP1 DUP4 SLOAD DIV MUL DUP4 MSTORE SWAP2 PUSH1 0x20 ADD SWAP2 PUSH2 0x764 JUMP JUMPDEST DUP3 ADD SWAP2 SWAP1 PUSH0 MSTORE PUSH1 0x20 PUSH0 KECCAK256 SWAP1 JUMPDEST DUP2 SLOAD DUP2 MSTORE SWAP1 PUSH1 0x1 ADD SWAP1 PUSH1 0x20 ADD DUP1 DUP4 GT PUSH2 0x747 JUMPI DUP3 SWAP1 SUB PUSH1 0x1F AND DUP3 ADD SWAP2 JUMPDEST POP POP POP POP POP DUP2 MSTORE PUSH1 0x20 ADD PUSH1 0x2 DUP3 ADD SLOAD DUP2 MSTORE PUSH1 0x20 ADD PUSH1 0x3 DUP3 ADD DUP1 SLOAD PUSH2 0x787 SWAP1 PUSH2 0xE1B JUMP JUMPDEST DUP1 PUSH1 0x1F ADD PUSH1 0x20 DUP1 SWAP2 DIV MUL PUSH1 0x20 ADD PUSH1 0x40 MLOAD SWAP1 DUP2 ADD PUSH1 0x40 MSTORE DUP1 SWAP3 SWAP2 SWAP1 DUP2 DUP2 MSTORE PUSH1 0x20 ADD DUP3 DUP1 SLOAD PUSH2 0x7B3 SWAP1 PUSH2 0xE1B JUMP JUMPDEST DUP1 ISZERO PUSH2 0x7FE JUMPI DUP1 PUSH1 0x1F LT PUSH2 0x7D5 JUMPI PUSH2 0x100 DUP1 DUP4 SLOAD DIV MUL DUP4 MSTORE SWAP2 PUSH1 0x20 ADD SWAP2 PUSH2 0x7FE JUMP JUMPDEST DUP3 ADD SWAP2 SWAP1 PUSH0 MSTORE PUSH1 0x20 PUSH0 KECCAK256 SWAP1 JUMPDEST DUP2 SLOAD DUP2 MSTORE SWAP1 PUSH1 0x1 ADD SWAP1 PUSH1 0x20 ADD DUP1 DUP4 GT PUSH2 0x7E1 JUMPI DUP3 SWAP1 SUB PUSH1 0x1F AND DUP3 ADD SWAP2 JUMPDEST POP POP POP POP POP DUP2 MSTORE POP POP SWAP1 POP PUSH0 DUP2 PUSH1 0x40 ADD MLOAD SUB PUSH2 0x84F JUMPI PUSH1 0x40 MLOAD PUSH32 0x8C379A000000000000000000000000000000000000000000000000000000000 DUP2 MSTORE PUSH1 0x4 ADD PUSH2 0x846 SWAP1 PUSH2 0x1247 JUMP JUMPDEST PUSH1 0x40 MLOAD DUP1 SWAP2 SUB SWAP1 REVERT JUMPDEST DUP1 PUSH0 ADD MLOAD DUP2 PUSH1 0x20 ADD MLOAD DUP3 PUSH1 0x40 ADD MLOAD DUP4 PUSH1 0x60 ADD MLOAD SWAP5 POP SWAP5 POP SWAP5 POP SWAP5 POP POP SWAP2 SWAP4 POP SWAP2 SWAP4 JUMP JUMPDEST PUSH1 0x1 PUSH0 SWAP1 SLOAD SWAP1 PUSH2 0x100 EXP SWAP1 DIV PUSH20 0xFFFFFFFFFFFFFFFFFFFFFFFFFFFFFFFFFFFFFFFF AND PUSH20 0xFFFFFFFFFFFFFFFFFFFFFFFFFFFFFFFFFFFFFFFF AND CALLER PUSH20 0xFFFFFFFFFFFFFFFFFFFFFFFFFFFFFFFFFFFFFFFF AND EQ PUSH2 0x901 JUMPI PUSH1 0x40 MLOAD PUSH32 0x8C379A000000000000000000000000000000000000000000000000000000000 DUP2 MSTORE PUSH1 0x4 ADD PUSH2 0x8F8 SWAP1 PUSH2 0xEBB JUMP JUMPDEST PUSH1 0x40 MLOAD DUP1 SWAP2 SUB SWAP1 REVERT JUMPDEST PUSH0 DUP1 DUP3 PUSH1 0x40 MLOAD PUSH2 0x911 SWAP2 SWAP1 PUSH2 0xF13 JUMP JUMPDEST SWAP1 DUP2 MSTORE PUSH1 0x20 ADD PUSH1 0x40 MLOAD DUP1 SWAP2 SUB SWAP1 KECCAK256 PUSH1 0x2 ADD SLOAD SUB PUSH2 0x963 JUMPI PUSH1 0x40 MLOAD PUSH32 0x8C379A000000000000000000000000000000000000000000000000000000000 DUP2 MSTORE PUSH1 0x4 ADD PUSH2 0x95A SWAP1 PUSH2 0x1247 JUMP JUMPDEST PUSH1 0x40 MLOAD DUP1 SWAP2 SUB SWAP1 REVERT JUMPDEST PUSH0 DUP2 PUSH1 0x40 MLOAD PUSH2 0x972 SWAP2 SWAP1 PUSH2 0xF13 JUMP JUMPDEST SWAP1 DUP2 MSTORE PUSH1 0x20 ADD PUSH1 0x40 MLOAD DUP1 SWAP2 SUB SWAP1 KECCAK256 PUSH0 DUP1 DUP3 ADD PUSH0 PUSH2 0x98F SWAP2 SWAP1 PUSH2 0x9DE JUMP JUMPDEST PUSH1 0x1 DUP3 ADD PUSH0 PUSH2 0x99E SWAP2 SWAP1 PUSH2 0x9DE JUMP JUMPDEST PUSH1 0x2 DUP3 ADD PUSH0 SWAP1 SSTORE PUSH1 0x3 DUP3 ADD PUSH0 PUSH2 0x9B4 SWAP2 SWAP1 PUSH2 0x9DE JUMP JUMPDEST POP POP POP JUMP JUMPDEST PUSH1 0x1 PUSH0 SWAP1 SLOAD SWAP1 PUSH2 0x100 EXP SWAP1 DIV PUSH20 0xFFFFFFFFFFFFFFFFFFFFFFFFFFFFFFFFFFFFFFFF AND DUP2 JUMP JUMPDEST POP DUP1 SLOAD PUSH2 0x9EA SWAP1 PUSH2 0xE1B JUMP JUMPDEST PUSH0 DUP3 SSTORE DUP1 PUSH1 0x1F LT PUSH2 0x9FB JUMPI POP PUSH2 0xA18 JUMP JUMPDEST PUSH1 0x1F ADD PUSH1 0x20 SWAP1 DIV SWAP1 PUSH0 MSTORE PUSH1 0x20 PUSH0 KECCAK256 SWAP1 DUP2 ADD SWAP1 PUSH2 0xA17 SWAP2 SWAP1 PUSH2 0xA1B JUMP JUMPDEST JUMPDEST POP JUMP JUMPDEST JUMPDEST DUP1 DUP3 GT ISZERO PUSH2 0xA32 JUMPI PUSH0 DUP2 PUSH0 SWAP1 SSTORE POP PUSH1 0x1 ADD PUSH2 0xA1C JUMP JUMPDEST POP SWAP1 JUMP JUMPDEST PUSH0 PUSH1 0x40 MLOAD SWAP1 POP SWAP1 JUMP JUMPDEST PUSH0 DUP1 REVERT JUMPDEST PUSH0 DUP1 REVERT JUMPDEST PUSH0 DUP1 REVERT JUMPDEST PUSH0 DUP1 REVERT JUMPDEST PUSH0 PUSH1 0x1F NOT PUSH1 0x1F DUP4 ADD AND SWAP1 POP SWAP2 SWAP1 POP JUMP JUMPDEST PUSH32 0x4E487B7100000000000000000000000000000000000000000000000000000000 PUSH0 MSTORE PUSH1 0x41 PUSH1 0x4 MSTORE PUSH1 0x24 PUSH0 REVERT JUMPDEST PUSH2 0xA95 DUP3 PUSH2 0xA4F JUMP JUMPDEST DUP2 ADD DUP2 DUP2 LT PUSH8 0xFFFFFFFFFFFFFFFF DUP3 GT OR ISZERO PUSH2 0xAB4 JUMPI PUSH2 0xAB3 PUSH2 0xA5F JUMP JUMPDEST JUMPDEST DUP1 PUSH1 0x40 MSTORE POP POP POP JUMP JUMPDEST PUSH0 PUSH2 0xAC6 PUSH2 0xA36 JUMP JUMPDEST SWAP1 POP PUSH2 0xAD2 DUP3 DUP3 PUSH2 0xA8C JUMP JUMPDEST SWAP2 SWAP1 POP JUMP JUMPDEST PUSH0 PUSH8 0xFFFFFFFFFFFFFFFF DUP3 GT ISZERO PUSH2 0xAF1 JUMPI PUSH2 0xAF0 PUSH2 0xA5F JUMP JUMPDEST JUMPDEST PUSH2 0xAFA DUP3 PUSH2 0xA4F JUMP JUMPDEST SWAP1 POP PUSH1 0x20 DUP2 ADD SWAP1 POP SWAP2 SWAP1 POP JUMP JUMPDEST DUP3 DUP2 DUP4 CALLDATACOPY PUSH0 DUP4 DUP4 ADD MSTORE POP POP POP JUMP JUMPDEST PUSH0 PUSH2 0xB27 PUSH2 0xB22 DUP5 PUSH2 0xAD7 JUMP JUMPDEST PUSH2 0xABD JUMP JUMPDEST SWAP1 POP DUP3 DUP2 MSTORE PUSH1 0x20 DUP2 ADD DUP5 DUP5 DUP5 ADD GT ISZERO PUSH2 0xB43 JUMPI PUSH2 0xB42 PUSH2 0xA4B JUMP JUMPDEST JUMPDEST PUSH2 0xB4E DUP5 DUP3 DUP6 PUSH2 0xB07 JUMP JUMPDEST POP SWAP4 SWAP3 POP POP POP JUMP JUMPDEST PUSH0 DUP3 PUSH1 0x1F DUP4 ADD SLT PUSH2 0xB6A JUMPI PUSH2 0xB69 PUSH2 0xA47 JUMP JUMPDEST JUMPDEST DUP2 CALLDATALOAD PUSH2 0xB7A DUP5 DUP3 PUSH1 0x20 DUP7 ADD PUSH2 0xB15 JUMP JUMPDEST SWAP2 POP POP SWAP3 SWAP2 POP POP JUMP JUMPDEST PUSH0 PUSH1 0x20 DUP3 DUP5 SUB SLT ISZERO PUSH2 0xB98 JUMPI PUSH2 0xB97 PUSH2 0xA3F JUMP JUMPDEST JUMPDEST PUSH0 DUP3 ADD CALLDATALOAD PUSH8 0xFFFFFFFFFFFFFFFF DUP2 GT ISZERO PUSH2 0xBB5 JUMPI PUSH2 0xBB4 PUSH2 0xA43 JUMP JUMPDEST JUMPDEST PUSH2 0xBC1 DUP5 DUP3 DUP6 ADD PUSH2 0xB56 JUMP JUMPDEST SWAP2 POP POP SWAP3 SWAP2 POP POP JUMP JUMPDEST PUSH0 DUP2 MLOAD SWAP1 POP SWAP2 SWAP1 POP JUMP JUMPDEST PUSH0 DUP3 DUP3 MSTORE PUSH1 0x20 DUP3 ADD SWAP1 POP SWAP3 SWAP2 POP POP JUMP JUMPDEST PUSH0 JUMPDEST DUP4 DUP2 LT ISZERO PUSH2 0xC01 JUMPI DUP1 DUP3 ADD MLOAD DUP2 DUP5 ADD MSTORE PUSH1 0x20 DUP2 ADD SWAP1 POP PUSH2 0xBE6 JUMP JUMPDEST PUSH0 DUP5 DUP5 ADD MSTORE POP POP POP POP JUMP JUMPDEST PUSH0 PUSH2 0xC16 DUP3 PUSH2 0xBCA JUMP JUMPDEST PUSH2 0xC20 DUP2 DUP6 PUSH2 0xBD4 JUMP JUMPDEST SWAP4 POP PUSH2 0xC30 DUP2 DUP6 PUSH1 0x20 DUP7 ADD PUSH2 0xBE4 JUMP JUMPDEST PUSH2 0xC39 DUP2 PUSH2 0xA4F JUMP JUMPDEST DUP5 ADD SWAP2 POP POP SWAP3 SWAP2 POP POP JUMP JUMPDEST PUSH0 DUP2 SWAP1 POP SWAP2 SWAP1 POP JUMP JUMPDEST PUSH2 0xC56 DUP2 PUSH2 0xC44 JUMP JUMPDEST DUP3 MSTORE POP POP JUMP JUMPDEST PUSH0 PUSH1 0x80 DUP3 ADD SWAP1 POP DUP2 DUP2 SUB PUSH0 DUP4 ADD MSTORE PUSH2 0xC74 DUP2 DUP8 PUSH2 0xC0C JUMP JUMPDEST SWAP1 POP DUP2 DUP2 SUB PUSH1 0x20 DUP4 ADD MSTORE PUSH2 0xC88 DUP2 DUP7 PUSH2 0xC0C JUMP JUMPDEST SWAP1 POP PUSH2 0xC97 PUSH1 0x40 DUP4 ADD DUP6 PUSH2 0xC4D JUMP JUMPDEST DUP2 DUP2 SUB PUSH1 0x60 DUP4 ADD MSTORE PUSH2 0xCA9 DUP2 DUP5 PUSH2 0xC0C JUMP JUMPDEST SWAP1 POP SWAP6 SWAP5 POP POP POP POP POP JUMP JUMPDEST PUSH2 0xCBD DUP2 PUSH2 0xC44 JUMP JUMPDEST DUP2 EQ PUSH2 0xCC7 JUMPI PUSH0 DUP1 REVERT JUMPDEST POP JUMP JUMPDEST PUSH0 DUP2 CALLDATALOAD SWAP1 POP PUSH2 0xCD8 DUP2 PUSH2 0xCB4 JUMP JUMPDEST SWAP3 SWAP2 POP POP JUMP JUMPDEST PUSH0 DUP1 PUSH0 DUP1 PUSH1 0x80 DUP6 DUP8 SUB SLT ISZERO PUSH2 0xCF6 JUMPI PUSH2 0xCF5 PUSH2 0xA3F JUMP JUMPDEST JUMPDEST PUSH0 DUP6 ADD CALLDATALOAD PUSH8 0xFFFFFFFFFFFFFFFF DUP2 GT ISZERO PUSH2 0xD13 JUMPI PUSH2 0xD12 PUSH2 0xA43 JUMP JUMPDEST JUMPDEST PUSH2 0xD1F DUP8 DUP3 DUP9 ADD PUSH2 0xB56 JUMP JUMPDEST SWAP5 POP POP PUSH1 0x20 DUP6 ADD CALLDATALOAD PUSH8 0xFFFFFFFFFFFFFFFF DUP2 GT ISZERO PUSH2 0xD40 JUMPI PUSH2 0xD3F PUSH2 0xA43 JUMP JUMPDEST JUMPDEST PUSH2 0xD4C DUP8 DUP3 DUP9 ADD PUSH2 0xB56 JUMP JUMPDEST SWAP4 POP POP PUSH1 0x40 PUSH2 0xD5D DUP8 DUP3 DUP9 ADD PUSH2 0xCCA JUMP JUMPDEST SWAP3 POP POP PUSH1 0x60 DUP6 ADD CALLDATALOAD PUSH8 0xFFFFFFFFFFFFFFFF DUP2 GT ISZERO PUSH2 0xD7E JUMPI PUSH2 0xD7D PUSH2 0xA43 JUMP JUMPDEST JUMPDEST PUSH2 0xD8A DUP8 DUP3 DUP9 ADD PUSH2 0xB56 JUMP JUMPDEST SWAP2 POP POP SWAP3 SWAP6 SWAP2 SWAP5 POP SWAP3 POP JUMP JUMPDEST PUSH0 PUSH20 0xFFFFFFFFFFFFFFFFFFFFFFFFFFFFFFFFFFFFFFFF DUP3 AND SWAP1 POP SWAP2 SWAP1 POP JUMP JUMPDEST PUSH0 PUSH2 0xDBF DUP3 PUSH2 0xD96 JUMP JUMPDEST SWAP1 POP SWAP2 SWAP1 POP JUMP JUMPDEST PUSH2 0xDCF DUP2 PUSH2 0xDB5 JUMP JUMPDEST DUP3 MSTORE POP POP JUMP JUMPDEST PUSH0 PUSH1 0x20 DUP3 ADD SWAP1 POP PUSH2 0xDE8 PUSH0 DUP4 ADD DUP5 PUSH2 0xDC6 JUMP JUMPDEST SWAP3 SWAP2 POP POP JUMP JUMPDEST PUSH32 0x4E487B7100000000000000000000000000000000000000000000000000000000 PUSH0 MSTORE PUSH1 0x22 PUSH1 0x4 MSTORE PUSH1 0x24 PUSH0 REVERT JUMPDEST PUSH0 PUSH1 0x2 DUP3 DIV SWAP1 POP PUSH1 0x1 DUP3 AND DUP1 PUSH2 0xE32 JUMPI PUSH1 0x7F DUP3 AND SWAP2 POP JUMPDEST PUSH1 0x20 DUP3 LT DUP2 SUB PUSH2 0xE45 JUMPI PUSH2 0xE44 PUSH2 0xDEE JUMP JUMPDEST JUMPDEST POP SWAP2 SWAP1 POP JUMP JUMPDEST PUSH32 0x416B736573206469746F6C616B2E2048616E79612061646D696E2079616E6720 PUSH0 DUP3 ADD MSTORE PUSH32 0x6461706174206D656E67616B7365732E00000000000000000000000000000000 PUSH1 0x20 DUP3 ADD MSTORE POP JUMP JUMPDEST PUSH0 PUSH2 0xEA5 PUSH1 0x30 DUP4 PUSH2 0xBD4 JUMP JUMPDEST SWAP2 POP PUSH2 0xEB0 DUP3 PUSH2 0xE4B JUMP JUMPDEST PUSH1 0x40 DUP3 ADD SWAP1 POP SWAP2 SWAP1 POP JUMP JUMPDEST PUSH0 PUSH1 0x20 DUP3 ADD SWAP1 POP DUP2 DUP2 SUB PUSH0 DUP4 ADD MSTORE PUSH2 0xED2 DUP2 PUSH2 0xE99 JUMP JUMPDEST SWAP1 POP SWAP2 SWAP1 POP JUMP JUMPDEST PUSH0 DUP2 SWAP1 POP SWAP3 SWAP2 POP POP JUMP JUMPDEST PUSH0 PUSH2 0xEED DUP3 PUSH2 0xBCA JUMP JUMPDEST PUSH2 0xEF7 DUP2 DUP6 PUSH2 0xED9 JUMP JUMPDEST SWAP4 POP PUSH2 0xF07 DUP2 DUP6 PUSH1 0x20 DUP7 ADD PUSH2 0xBE4 JUMP JUMPDEST DUP1 DUP5 ADD SWAP2 POP POP SWAP3 SWAP2 POP POP JUMP JUMPDEST PUSH0 PUSH2 0xF1E DUP3 DUP5 PUSH2 0xEE3 JUMP JUMPDEST SWAP2 POP DUP2 SWAP1 POP SWAP3 SWAP2 POP POP JUMP JUMPDEST PUSH32 0x4953424E20737564616820646967756E616B616E2E0000000000000000000000 PUSH0 DUP3 ADD MSTORE POP JUMP JUMPDEST PUSH0 PUSH2 0xF5D PUSH1 0x15 DUP4 PUSH2 0xBD4 JUMP JUMPDEST SWAP2 POP PUSH2 0xF68 DUP3 PUSH2 0xF29 JUMP JUMPDEST PUSH1 0x20 DUP3 ADD SWAP1 POP SWAP2 SWAP1 POP JUMP JUMPDEST PUSH0 PUSH1 0x20 DUP3 ADD SWAP1 POP DUP2 DUP2 SUB PUSH0 DUP4 ADD MSTORE PUSH2 0xF8A DUP2 PUSH2 0xF51 JUMP JUMPDEST SWAP1 POP SWAP2 SWAP1 POP JUMP JUMPDEST PUSH0 DUP2 SWAP1 POP DUP2 PUSH0 MSTORE PUSH1 0x20 PUSH0 KECCAK256 SWAP1 POP SWAP2 SWAP1 POP JUMP JUMPDEST PUSH0 PUSH1 0x20 PUSH1 0x1F DUP4 ADD DIV SWAP1 POP SWAP2 SWAP1 POP JUMP JUMPDEST PUSH0 DUP3 DUP3 SHL SWAP1 POP SWAP3 SWAP2 POP POP JUMP JUMPDEST PUSH0 PUSH1 0x8 DUP4 MUL PUSH2 0xFED PUSH32 0xFFFFFFFFFFFFFFFFFFFFFFFFFFFFFFFFFFFFFFFFFFFFFFFFFFFFFFFFFFFFFFFF DUP3 PUSH2 0xFB2 JUMP JUMPDEST PUSH2 0xFF7 DUP7 DUP4 PUSH2 0xFB2 JUMP JUMPDEST SWAP6 POP DUP1 NOT DUP5 AND SWAP4 POP DUP1 DUP7 AND DUP5 OR SWAP3 POP POP POP SWAP4 SWAP3 POP POP POP JUMP JUMPDEST PUSH0 DUP2 SWAP1 POP SWAP2 SWAP1 POP JUMP JUMPDEST PUSH0 PUSH2 0x1032 PUSH2 0x102D PUSH2 0x1028 DUP5 PUSH2 0xC44 JUMP JUMPDEST PUSH2 0x100F JUMP JUMPDEST PUSH2 0xC44 JUMP JUMPDEST SWAP1 POP SWAP2 SWAP1 POP JUMP JUMPDEST PUSH0 DUP2 SWAP1 POP SWAP2 SWAP1 POP JUMP JUMPDEST PUSH2 0x104B DUP4 PUSH2 0x1018 JUMP JUMPDEST PUSH2 0x105F PUSH2 0x1057 DUP3 PUSH2 0x1039 JUMP JUMPDEST DUP5 DUP5 SLOAD PUSH2 0xFBE JUMP JUMPDEST DUP3 SSTORE POP POP POP POP JUMP JUMPDEST PUSH0 SWAP1 JUMP JUMPDEST PUSH2 0x1073 PUSH2 0x1067 JUMP JUMPDEST PUSH2 0x107E DUP2 DUP5 DUP5 PUSH2 0x1042 JUMP JUMPDEST POP POP POP JUMP JUMPDEST JUMPDEST DUP2 DUP2 LT ISZERO PUSH2 0x10A1 JUMPI PUSH2 0x1096 PUSH0 DUP3 PUSH2 0x106B JUMP JUMPDEST PUSH1 0x1 DUP2 ADD SWAP1 POP PUSH2 0x1084 JUMP JUMPDEST POP POP JUMP JUMPDEST PUSH1 0x1F DUP3 GT ISZERO PUSH2 0x10E6 JUMPI PUSH2 0x10B7 DUP2 PUSH2 0xF91 JUMP JUMPDEST PUSH2 0x10C0 DUP5 PUSH2 0xFA3 JUMP JUMPDEST DUP2 ADD PUSH1 0x20 DUP6 LT ISZERO PUSH2 0x10CF JUMPI DUP2 SWAP1 POP JUMPDEST PUSH2 0x10E3 PUSH2 0x10DB DUP6 PUSH2 0xFA3 JUMP JUMPDEST DUP4 ADD DUP3 PUSH2 0x1083 JUMP JUMPDEST POP POP JUMPDEST POP POP POP JUMP JUMPDEST PUSH0 DUP3 DUP3 SHR SWAP1 POP SWAP3 SWAP2 POP POP JUMP JUMPDEST PUSH0 PUSH2 0x1106 PUSH0 NOT DUP5 PUSH1 0x8 MUL PUSH2 0x10EB JUMP JUMPDEST NOT DUP1 DUP4 AND SWAP2 POP POP SWAP3 SWAP2 POP POP JUMP JUMPDEST PUSH0 PUSH2 0x111E DUP4 DUP4 PUSH2 0x10F7 JUMP JUMPDEST SWAP2 POP DUP3 PUSH1 0x2 MUL DUP3 OR SWAP1 POP SWAP3 SWAP2 POP POP JUMP JUMPDEST PUSH2 0x1137 DUP3 PUSH2 0xBCA JUMP JUMPDEST PUSH8 0xFFFFFFFFFFFFFFFF DUP2 GT ISZERO PUSH2 0x1150 JUMPI PUSH2 0x114F PUSH2 0xA5F JUMP JUMPDEST JUMPDEST PUSH2 0x115A DUP3 SLOAD PUSH2 0xE1B JUMP JUMPDEST PUSH2 0x1165 DUP3 DUP3 DUP6 PUSH2 0x10A5 JUMP JUMPDEST PUSH0 PUSH1 0x20 SWAP1 POP PUSH1 0x1F DUP4 GT PUSH1 0x1 DUP2 EQ PUSH2 0x1196 JUMPI PUSH0 DUP5 ISZERO PUSH2 0x1184 JUMPI DUP3 DUP8 ADD MLOAD SWAP1 POP JUMPDEST PUSH2 0x118E DUP6 DUP3 PUSH2 0x1113 JUMP JUMPDEST DUP7 SSTORE POP PUSH2 0x11F5 JUMP JUMPDEST PUSH1 0x1F NOT DUP5 AND PUSH2 0x11A4 DUP7 PUSH2 0xF91 JUMP JUMPDEST PUSH0 JUMPDEST DUP3 DUP2 LT ISZERO PUSH2 0x11CB JUMPI DUP5 DUP10 ADD MLOAD DUP3 SSTORE PUSH1 0x1 DUP3 ADD SWAP2 POP PUSH1 0x20 DUP6 ADD SWAP5 POP PUSH1 0x20 DUP2 ADD SWAP1 POP PUSH2 0x11A6 JUMP JUMPDEST DUP7 DUP4 LT ISZERO PUSH2 0x11E8 JUMPI DUP5 DUP10 ADD MLOAD PUSH2 0x11E4 PUSH1 0x1F DUP10 AND DUP3 PUSH2 0x10F7 JUMP JUMPDEST DUP4 SSTORE POP JUMPDEST PUSH1 0x1 PUSH1 0x2 DUP9 MUL ADD DUP9 SSTORE POP POP POP JUMPDEST POP POP POP POP POP POP JUMP JUMPDEST PUSH32 0x42756B7520746964616B20646974656D756B616E2E0000000000000000000000 PUSH0 DUP3 ADD MSTORE POP JUMP JUMPDEST PUSH0 PUSH2 0x1231 PUSH1 0x15 DUP4 PUSH2 0xBD4 JUMP JUMPDEST SWAP2 POP PUSH2 0x123C DUP3 PUSH2 0x11FD JUMP JUMPDEST PUSH1 0x20 DUP3 ADD SWAP1 POP SWAP2 SWAP1 POP JUMP JUMPDEST PUSH0 PUSH1 0x20 DUP3 ADD SWAP1 POP DUP2 DUP2 SUB PUSH0 DUP4 ADD MSTORE PUSH2 0x125E DUP2 PUSH2 0x1225 JUMP JUMPDEST SWAP1 POP SWAP2 SWAP1 POP JUMP INVALID LOG2 PUSH5 0x6970667358 0x22 SLT KECCAK256 0xF9 CALLVALUE 0xDB SWAP3 SMOD GAS 0xBF PUSH17 0x1632E8540436826ED19597B71E5B527D0D CALL SWAP9 PUSH5 0x79BCA20A64 PUSH20 0x6F6C634300081400330000000000000000000000 "
				},
				"gasEstimates": {
					"creation": {
						"codeDepositCost": "952600",
						"executionCost": "25251",
						"totalCost": "977851"
					},
					"external": {
						"admin()": "2596",
						"bukuMapping(string)": "infinite",
						"getDataBuku(string)": "infinite",
						"hapusBuku(string)": "infinite",
						"tambahBuku(string,string,uint256,string)": "infinite",
						"updateBuku(string,string,uint256,string)": "infinite"
					}
				},
				"methodIdentifiers": {
					"admin()": "f851a440",
					"bukuMapping(string)": "5aeecb93",
					"getDataBuku(string)": "89ef65d4",
					"hapusBuku(string)": "96de0fc7",
					"tambahBuku(string,string,uint256,string)": "6631d4f0",
					"updateBuku(string,string,uint256,string)": "85af0a9b"
				}
			},
			"storageLayout": {
				"storage": [
					{
						"astId": 331,
						"contract": "perpus.sol:Perpustakaan",
						"label": "bukuMapping",
						"offset": 0,
						"slot": "0",
						"type": "t_mapping(t_string_memory_ptr,t_struct(Buku)326_storage)"
					},
					{
						"astId": 333,
						"contract": "perpus.sol:Perpustakaan",
						"label": "admin",
						"offset": 0,
						"slot": "1",
						"type": "t_address"
					}
				],
				"types": {
					"t_address": {
						"encoding": "inplace",
						"label": "address",
						"numberOfBytes": "20"
					},
					"t_mapping(t_string_memory_ptr,t_struct(Buku)326_storage)": {
						"encoding": "mapping",
						"key": "t_string_memory_ptr",
						"label": "mapping(string => struct Perpustakaan.Buku)",
						"numberOfBytes": "32",
						"value": "t_struct(Buku)326_storage"
					},
					"t_string_memory_ptr": {
						"encoding": "bytes",
						"label": "string",
						"numberOfBytes": "32"
					},
					"t_string_storage": {
						"encoding": "bytes",
						"label": "string",
						"numberOfBytes": "32"
					},
					"t_struct(Buku)326_storage": {
						"encoding": "inplace",
						"label": "struct Perpustakaan.Buku",
						"members": [
							{
								"astId": 319,
								"contract": "perpus.sol:Perpustakaan",
								"label": "ISBN",
								"offset": 0,
								"slot": "0",
								"type": "t_string_storage"
							},
							{
								"astId": 321,
								"contract": "perpus.sol:Perpustakaan",
								"label": "judul",
								"offset": 0,
								"slot": "1",
								"type": "t_string_storage"
							},
							{
								"astId": 323,
								"contract": "perpus.sol:Perpustakaan",
								"label": "tahunDibuat",
								"offset": 0,
								"slot": "2",
								"type": "t_uint256"
							},
							{
								"astId": 325,
								"contract": "perpus.sol:Perpustakaan",
								"label": "penulis",
								"offset": 0,
								"slot": "3",
								"type": "t_string_storage"
							}
						],
						"numberOfBytes": "128"
					},
					"t_uint256": {
						"encoding": "inplace",
						"label": "uint256",
						"numberOfBytes": "32"
					}
				}
			},
			"userdoc": {
				"kind": "user",
				"methods": {},
				"version": 1
			}
		}
	}
}